{
  "address": "0x1abDb44E6589659b8d8b0d26f52913034623b744",
  "abi": [
    {
      "inputs": [
        {
          "internalType": "address",
          "name": "_endpoint",
          "type": "address"
        },
        {
          "internalType": "address",
          "name": "_owner",
          "type": "address"
        }
      ],
      "stateMutability": "nonpayable",
      "type": "constructor"
    },
    {
      "inputs": [],
      "name": "InvalidDelegate",
      "type": "error"
    },
    {
      "inputs": [],
      "name": "InvalidEndpointCall",
      "type": "error"
    },
    {
      "inputs": [
        {
          "internalType": "bytes",
          "name": "options",
          "type": "bytes"
        }
      ],
      "name": "InvalidOptions",
      "type": "error"
    },
    {
      "inputs": [],
      "name": "LzTokenUnavailable",
      "type": "error"
    },
    {
      "inputs": [
        {
          "internalType": "uint32",
          "name": "eid",
          "type": "uint32"
        }
      ],
      "name": "NoPeer",
      "type": "error"
    },
    {
      "inputs": [
        {
          "internalType": "uint256",
          "name": "msgValue",
          "type": "uint256"
        }
      ],
      "name": "NotEnoughNative",
      "type": "error"
    },
    {
      "inputs": [
        {
          "internalType": "address",
          "name": "addr",
          "type": "address"
        }
      ],
      "name": "OnlyEndpoint",
      "type": "error"
    },
    {
      "inputs": [
        {
          "internalType": "uint32",
          "name": "eid",
          "type": "uint32"
        },
        {
          "internalType": "bytes32",
          "name": "sender",
          "type": "bytes32"
        }
      ],
      "name": "OnlyPeer",
      "type": "error"
    },
    {
      "inputs": [
        {
          "internalType": "address",
          "name": "owner",
          "type": "address"
        }
      ],
      "name": "OwnableInvalidOwner",
      "type": "error"
    },
    {
      "inputs": [
        {
          "internalType": "address",
          "name": "account",
          "type": "address"
        }
      ],
      "name": "OwnableUnauthorizedAccount",
      "type": "error"
    },
    {
      "inputs": [
        {
          "internalType": "address",
          "name": "token",
          "type": "address"
        }
      ],
      "name": "SafeERC20FailedOperation",
      "type": "error"
    },
    {
      "anonymous": false,
      "inputs": [
        {
          "indexed": true,
          "internalType": "address",
          "name": "token",
          "type": "address"
        }
      ],
      "name": "EnergyTokenSet",
      "type": "event"
    },
    {
      "anonymous": false,
      "inputs": [
        {
          "indexed": true,
          "internalType": "address",
          "name": "seller",
          "type": "address"
        },
        {
          "indexed": false,
          "internalType": "uint256",
          "name": "amount",
          "type": "uint256"
        }
      ],
      "name": "EnergyWithdrawn",
      "type": "event"
    },
    {
      "anonymous": false,
      "inputs": [
        {
          "components": [
            {
              "internalType": "uint32",
              "name": "eid",
              "type": "uint32"
            },
            {
              "internalType": "uint16",
              "name": "msgType",
              "type": "uint16"
            },
            {
              "internalType": "bytes",
              "name": "options",
              "type": "bytes"
            }
          ],
          "indexed": false,
          "internalType": "struct EnforcedOptionParam[]",
          "name": "_enforcedOptions",
          "type": "tuple[]"
        }
      ],
      "name": "EnforcedOptionSet",
      "type": "event"
    },
    {
      "anonymous": false,
      "inputs": [
        {
          "indexed": true,
          "internalType": "uint256",
          "name": "listingId",
          "type": "uint256"
        },
        {
          "indexed": true,
          "internalType": "address",
          "name": "seller",
          "type": "address"
        }
      ],
      "name": "ListingCancelled",
      "type": "event"
    },
    {
      "anonymous": false,
      "inputs": [
        {
          "indexed": true,
          "internalType": "address",
          "name": "previousOwner",
          "type": "address"
        },
        {
          "indexed": true,
          "internalType": "address",
          "name": "newOwner",
          "type": "address"
        }
      ],
      "name": "OwnershipTransferred",
      "type": "event"
    },
    {
      "anonymous": false,
      "inputs": [
        {
          "indexed": false,
          "internalType": "uint32",
          "name": "eid",
          "type": "uint32"
        },
        {
          "indexed": false,
          "internalType": "bytes32",
          "name": "peer",
          "type": "bytes32"
        }
      ],
      "name": "PeerSet",
      "type": "event"
    },
    {
      "anonymous": false,
      "inputs": [
        {
          "indexed": true,
          "internalType": "uint256",
          "name": "listingId",
          "type": "uint256"
        },
        {
          "indexed": true,
          "internalType": "address",
          "name": "seller",
          "type": "address"
        },
        {
          "indexed": true,
          "internalType": "address",
          "name": "resourceToken",
          "type": "address"
        },
        {
          "indexed": false,
          "internalType": "uint256",
          "name": "amount",
          "type": "uint256"
        },
        {
          "indexed": false,
          "internalType": "uint256",
          "name": "pricePerToken",
          "type": "uint256"
        }
      ],
      "name": "ResourceListed",
      "type": "event"
    },
    {
      "anonymous": false,
      "inputs": [
        {
          "indexed": true,
          "internalType": "uint256",
          "name": "listingId",
          "type": "uint256"
        },
        {
          "indexed": true,
          "internalType": "address",
          "name": "buyer",
          "type": "address"
        },
        {
          "indexed": true,
          "internalType": "address",
          "name": "seller",
          "type": "address"
        },
        {
          "indexed": false,
          "internalType": "uint256",
          "name": "amount",
          "type": "uint256"
        },
        {
          "indexed": false,
          "internalType": "uint256",
          "name": "totalCost",
          "type": "uint256"
        }
      ],
      "name": "ResourcePurchased",
      "type": "event"
    },
    {
      "inputs": [],
      "name": "PRICE_PER_RESOURCE",
      "outputs": [
        {
          "internalType": "uint256",
          "name": "",
          "type": "uint256"
        }
      ],
      "stateMutability": "view",
      "type": "function"
    },
    {
      "inputs": [],
      "name": "SEND",
      "outputs": [
        {
          "internalType": "uint16",
          "name": "",
          "type": "uint16"
        }
      ],
      "stateMutability": "view",
      "type": "function"
    },
    {
      "inputs": [
        {
          "components": [
            {
              "internalType": "uint32",
              "name": "srcEid",
              "type": "uint32"
            },
            {
              "internalType": "bytes32",
              "name": "sender",
              "type": "bytes32"
            },
            {
              "internalType": "uint64",
              "name": "nonce",
              "type": "uint64"
            }
          ],
          "internalType": "struct Origin",
          "name": "origin",
          "type": "tuple"
        }
      ],
      "name": "allowInitializePath",
      "outputs": [
        {
          "internalType": "bool",
          "name": "",
          "type": "bool"
        }
      ],
      "stateMutability": "view",
      "type": "function"
    },
    {
      "inputs": [
        {
          "internalType": "uint256",
          "name": "_listingId",
          "type": "uint256"
        },
        {
          "internalType": "uint256",
          "name": "_amount",
          "type": "uint256"
        }
      ],
      "name": "buyResources",
      "outputs": [],
      "stateMutability": "nonpayable",
      "type": "function"
    },
    {
      "inputs": [
        {
          "internalType": "uint256",
          "name": "_amount",
          "type": "uint256"
        }
      ],
      "name": "calculateCost",
      "outputs": [
        {
          "internalType": "uint256",
          "name": "",
          "type": "uint256"
        }
      ],
      "stateMutability": "pure",
      "type": "function"
    },
    {
      "inputs": [
        {
          "internalType": "uint256",
          "name": "_listingId",
          "type": "uint256"
        }
      ],
      "name": "cancelListing",
      "outputs": [],
      "stateMutability": "nonpayable",
      "type": "function"
    },
    {
      "inputs": [
        {
          "internalType": "uint32",
          "name": "_eid",
          "type": "uint32"
        },
        {
          "internalType": "uint16",
          "name": "_msgType",
          "type": "uint16"
        },
        {
          "internalType": "bytes",
          "name": "_extraOptions",
          "type": "bytes"
        }
      ],
      "name": "combineOptions",
      "outputs": [
        {
          "internalType": "bytes",
          "name": "",
          "type": "bytes"
        }
      ],
      "stateMutability": "view",
      "type": "function"
    },
    {
      "inputs": [
        {
          "internalType": "address",
          "name": "_token",
          "type": "address"
        },
        {
          "internalType": "address",
          "name": "_to",
          "type": "address"
        },
        {
          "internalType": "uint256",
          "name": "_amount",
          "type": "uint256"
        }
      ],
      "name": "emergencyWithdrawTokens",
      "outputs": [],
      "stateMutability": "nonpayable",
      "type": "function"
    },
    {
      "inputs": [],
      "name": "endpoint",
      "outputs": [
        {
          "internalType": "contract ILayerZeroEndpointV2",
          "name": "",
          "type": "address"
        }
      ],
      "stateMutability": "view",
      "type": "function"
    },
    {
      "inputs": [],
      "name": "energyToken",
      "outputs": [
        {
          "internalType": "address",
          "name": "",
          "type": "address"
        }
      ],
      "stateMutability": "view",
      "type": "function"
    },
    {
      "inputs": [
        {
          "internalType": "uint32",
          "name": "eid",
          "type": "uint32"
        },
        {
          "internalType": "uint16",
          "name": "msgType",
          "type": "uint16"
        }
      ],
      "name": "enforcedOptions",
      "outputs": [
        {
          "internalType": "bytes",
          "name": "enforcedOption",
          "type": "bytes"
        }
      ],
      "stateMutability": "view",
      "type": "function"
    },
    {
      "inputs": [],
      "name": "executor",
      "outputs": [
        {
          "internalType": "address",
          "name": "",
          "type": "address"
        }
      ],
      "stateMutability": "view",
      "type": "function"
    },
    {
      "inputs": [],
      "name": "from",
      "outputs": [
        {
          "internalType": "address",
          "name": "",
          "type": "address"
        }
      ],
      "stateMutability": "view",
      "type": "function"
    },
    {
      "inputs": [
        {
          "internalType": "address",
          "name": "_seller",
          "type": "address"
        }
      ],
      "name": "getActiveSellerListings",
      "outputs": [
        {
          "internalType": "uint256[]",
          "name": "",
          "type": "uint256[]"
        }
      ],
      "stateMutability": "view",
      "type": "function"
    },
    {
      "inputs": [
        {
          "internalType": "uint256",
          "name": "_listingId",
          "type": "uint256"
        }
      ],
      "name": "getListing",
      "outputs": [
        {
          "components": [
            {
              "internalType": "uint256",
              "name": "listingId",
              "type": "uint256"
            },
            {
              "internalType": "address",
              "name": "seller",
              "type": "address"
            },
            {
              "internalType": "address",
              "name": "resourceToken",
              "type": "address"
            },
            {
              "internalType": "uint256",
              "name": "amount",
              "type": "uint256"
            },
            {
              "internalType": "uint256",
              "name": "pricePerToken",
              "type": "uint256"
            },
            {
              "internalType": "bool",
              "name": "active",
              "type": "bool"
            }
          ],
          "internalType": "struct ResourceOFTComposerMock.Listing",
          "name": "",
          "type": "tuple"
        }
      ],
      "stateMutability": "view",
      "type": "function"
    },
    {
      "inputs": [
        {
          "internalType": "address",
          "name": "_seller",
          "type": "address"
        }
      ],
      "name": "getSellerBalance",
      "outputs": [
        {
          "internalType": "uint256",
          "name": "",
          "type": "uint256"
        }
      ],
      "stateMutability": "view",
      "type": "function"
    },
    {
      "inputs": [
        {
          "internalType": "address",
          "name": "_seller",
          "type": "address"
        }
      ],
      "name": "getSellerListings",
      "outputs": [
        {
          "internalType": "uint256[]",
          "name": "",
          "type": "uint256[]"
        }
      ],
      "stateMutability": "view",
      "type": "function"
    },
    {
      "inputs": [
        {
          "internalType": "address",
          "name": "_resourceToken",
          "type": "address"
        }
      ],
      "name": "getTotalVolume",
      "outputs": [
        {
          "internalType": "uint256",
          "name": "",
          "type": "uint256"
        }
      ],
      "stateMutability": "view",
      "type": "function"
    },
    {
      "inputs": [],
      "name": "guid",
      "outputs": [
        {
          "internalType": "bytes32",
          "name": "",
          "type": "bytes32"
        }
      ],
      "stateMutability": "view",
      "type": "function"
    },
    {
      "inputs": [
        {
          "components": [
            {
              "internalType": "uint32",
              "name": "srcEid",
              "type": "uint32"
            },
            {
              "internalType": "bytes32",
              "name": "sender",
              "type": "bytes32"
            },
            {
              "internalType": "uint64",
              "name": "nonce",
              "type": "uint64"
            }
          ],
          "internalType": "struct Origin",
          "name": "",
          "type": "tuple"
        },
        {
          "internalType": "bytes",
          "name": "",
          "type": "bytes"
        },
        {
          "internalType": "address",
          "name": "_sender",
          "type": "address"
        }
      ],
      "name": "isComposeMsgSender",
      "outputs": [
        {
          "internalType": "bool",
          "name": "",
          "type": "bool"
        }
      ],
      "stateMutability": "view",
      "type": "function"
    },
    {
      "inputs": [
        {
          "internalType": "uint256",
          "name": "",
          "type": "uint256"
        }
      ],
      "name": "listings",
      "outputs": [
        {
          "internalType": "uint256",
          "name": "listingId",
          "type": "uint256"
        },
        {
          "internalType": "address",
          "name": "seller",
          "type": "address"
        },
        {
          "internalType": "address",
          "name": "resourceToken",
          "type": "address"
        },
        {
          "internalType": "uint256",
          "name": "amount",
          "type": "uint256"
        },
        {
          "internalType": "uint256",
          "name": "pricePerToken",
          "type": "uint256"
        },
        {
          "internalType": "bool",
          "name": "active",
          "type": "bool"
        }
      ],
      "stateMutability": "view",
      "type": "function"
    },
    {
      "inputs": [
        {
          "internalType": "address",
          "name": "_from",
          "type": "address"
        },
        {
          "internalType": "bytes32",
          "name": "_guid",
          "type": "bytes32"
        },
        {
          "internalType": "bytes",
          "name": "_message",
          "type": "bytes"
        },
        {
          "internalType": "address",
          "name": "_executor",
          "type": "address"
        },
        {
          "internalType": "bytes",
          "name": "",
          "type": "bytes"
        }
      ],
      "name": "lzCompose",
      "outputs": [],
      "stateMutability": "payable",
      "type": "function"
    },
    {
      "inputs": [
        {
          "components": [
            {
              "internalType": "uint32",
              "name": "srcEid",
              "type": "uint32"
            },
            {
              "internalType": "bytes32",
              "name": "sender",
              "type": "bytes32"
            },
            {
              "internalType": "uint64",
              "name": "nonce",
              "type": "uint64"
            }
          ],
          "internalType": "struct Origin",
          "name": "_origin",
          "type": "tuple"
        },
        {
          "internalType": "bytes32",
          "name": "_guid",
          "type": "bytes32"
        },
        {
          "internalType": "bytes",
          "name": "_message",
          "type": "bytes"
        },
        {
          "internalType": "address",
          "name": "_executor",
          "type": "address"
        },
        {
          "internalType": "bytes",
          "name": "_extraData",
          "type": "bytes"
        }
      ],
      "name": "lzReceive",
      "outputs": [],
      "stateMutability": "payable",
      "type": "function"
    },
    {
      "inputs": [],
      "name": "message",
      "outputs": [
        {
          "internalType": "bytes",
          "name": "",
          "type": "bytes"
        }
      ],
      "stateMutability": "view",
      "type": "function"
    },
    {
      "inputs": [],
      "name": "nextListingId",
      "outputs": [
        {
          "internalType": "uint256",
          "name": "",
          "type": "uint256"
        }
      ],
      "stateMutability": "view",
      "type": "function"
    },
    {
      "inputs": [
        {
          "internalType": "uint32",
          "name": "",
          "type": "uint32"
        },
        {
          "internalType": "bytes32",
          "name": "",
          "type": "bytes32"
        }
      ],
      "name": "nextNonce",
      "outputs": [
        {
          "internalType": "uint64",
          "name": "nonce",
          "type": "uint64"
        }
      ],
      "stateMutability": "view",
      "type": "function"
    },
    {
      "inputs": [],
      "name": "oAppVersion",
      "outputs": [
        {
          "internalType": "uint64",
          "name": "senderVersion",
          "type": "uint64"
        },
        {
          "internalType": "uint64",
          "name": "receiverVersion",
          "type": "uint64"
        }
      ],
      "stateMutability": "pure",
      "type": "function"
    },
    {
      "inputs": [],
      "name": "owner",
      "outputs": [
        {
          "internalType": "address",
          "name": "",
          "type": "address"
        }
      ],
      "stateMutability": "view",
      "type": "function"
    },
    {
      "inputs": [
        {
          "internalType": "uint32",
          "name": "eid",
          "type": "uint32"
        }
      ],
      "name": "peers",
      "outputs": [
        {
          "internalType": "bytes32",
          "name": "peer",
          "type": "bytes32"
        }
      ],
      "stateMutability": "view",
      "type": "function"
    },
    {
      "inputs": [
        {
          "internalType": "uint32",
          "name": "_dstEid",
          "type": "uint32"
        },
        {
          "internalType": "bytes",
          "name": "_data",
          "type": "bytes"
        },
        {
          "internalType": "bytes",
          "name": "_options",
          "type": "bytes"
        },
        {
          "internalType": "bool",
          "name": "_payInLzToken",
          "type": "bool"
        }
      ],
      "name": "quoteSendBytes",
      "outputs": [
        {
          "components": [
            {
              "internalType": "uint256",
              "name": "nativeFee",
              "type": "uint256"
            },
            {
              "internalType": "uint256",
              "name": "lzTokenFee",
              "type": "uint256"
            }
          ],
          "internalType": "struct MessagingFee",
          "name": "fee",
          "type": "tuple"
        }
      ],
      "stateMutability": "view",
      "type": "function"
    },
    {
      "inputs": [],
      "name": "renounceOwnership",
      "outputs": [],
      "stateMutability": "nonpayable",
      "type": "function"
    },
    {
      "inputs": [
        {
          "internalType": "address",
          "name": "",
          "type": "address"
        }
      ],
      "name": "sellerEnergyBalance",
      "outputs": [
        {
          "internalType": "uint256",
          "name": "",
          "type": "uint256"
        }
      ],
      "stateMutability": "view",
      "type": "function"
    },
    {
      "inputs": [
        {
          "internalType": "address",
          "name": "",
          "type": "address"
        },
        {
          "internalType": "uint256",
          "name": "",
          "type": "uint256"
        }
      ],
      "name": "sellerListings",
      "outputs": [
        {
          "internalType": "uint256",
          "name": "",
          "type": "uint256"
        }
      ],
      "stateMutability": "view",
      "type": "function"
    },
    {
      "inputs": [
        {
          "internalType": "uint32",
          "name": "_dstEid",
          "type": "uint32"
        },
        {
          "internalType": "bytes",
          "name": "_data",
          "type": "bytes"
        },
        {
          "internalType": "bytes",
          "name": "_options",
          "type": "bytes"
        }
      ],
      "name": "sendBytes",
      "outputs": [],
      "stateMutability": "payable",
      "type": "function"
    },
    {
      "inputs": [
        {
          "internalType": "address",
          "name": "_delegate",
          "type": "address"
        }
      ],
      "name": "setDelegate",
      "outputs": [],
      "stateMutability": "nonpayable",
      "type": "function"
    },
    {
      "inputs": [
        {
          "internalType": "address",
          "name": "_energyToken",
          "type": "address"
        }
      ],
      "name": "setEnergyToken",
      "outputs": [],
      "stateMutability": "nonpayable",
      "type": "function"
    },
    {
      "inputs": [
        {
          "components": [
            {
              "internalType": "uint32",
              "name": "eid",
              "type": "uint32"
            },
            {
              "internalType": "uint16",
              "name": "msgType",
              "type": "uint16"
            },
            {
              "internalType": "bytes",
              "name": "options",
              "type": "bytes"
            }
          ],
          "internalType": "struct EnforcedOptionParam[]",
          "name": "_enforcedOptions",
          "type": "tuple[]"
        }
      ],
      "name": "setEnforcedOptions",
      "outputs": [],
      "stateMutability": "nonpayable",
      "type": "function"
    },
    {
      "inputs": [
        {
          "internalType": "uint32",
          "name": "_eid",
          "type": "uint32"
        },
        {
          "internalType": "bytes32",
          "name": "_peer",
          "type": "bytes32"
        }
      ],
      "name": "setPeer",
      "outputs": [],
      "stateMutability": "nonpayable",
      "type": "function"
    },
    {
      "inputs": [
        {
          "internalType": "address",
          "name": "",
          "type": "address"
        }
      ],
      "name": "totalVolume",
      "outputs": [
        {
          "internalType": "uint256",
          "name": "",
          "type": "uint256"
        }
      ],
      "stateMutability": "view",
      "type": "function"
    },
    {
      "inputs": [
        {
          "internalType": "address",
          "name": "newOwner",
          "type": "address"
        }
      ],
      "name": "transferOwnership",
      "outputs": [],
      "stateMutability": "nonpayable",
      "type": "function"
    },
    {
      "inputs": [],
      "name": "withdrawEnergy",
      "outputs": [],
      "stateMutability": "nonpayable",
      "type": "function"
    },
    {
      "inputs": [
        {
          "internalType": "address payable",
          "name": "_to",
          "type": "address"
        },
        {
          "internalType": "uint256",
          "name": "_amount",
          "type": "uint256"
        }
      ],
      "name": "withdrawNative",
      "outputs": [],
      "stateMutability": "nonpayable",
      "type": "function"
    },
    {
      "stateMutability": "payable",
      "type": "receive"
    }
  ],
  "transactionHash": "0xaa4c614eea9873fc69aaf7181ae9c42163927a7c510d1bea54c930ec43902f35",
  "args": [
    "0x6EDCE65403992e310A62460808c4b910D972f10f",
    "0xb16b457D4324Bc4CF2f62c8ca5F4FaFC35c5242A"
  ],
  "numDeployments": 1,
  "solcInputHash": "e0b99cdf225cf66978fbef268f6de0f2",
  "bytecode": "0x60a060405260016008553480156200001657600080fd5b50604051620031ad380380620031ad833981016040819052620000399162000181565b81818181806001600160a01b0381166200006d57604051631e4fbdf760e01b81526000600482015260240160405180910390fd5b620000788162000114565b506001600160a01b038083166080528116620000a757604051632d618d8160e21b815260040160405180910390fd5b60805160405163ca5eb5e160e01b81526001600160a01b0383811660048301529091169063ca5eb5e190602401600060405180830381600087803b158015620000ef57600080fd5b505af115801562000104573d6000803e3d6000fd5b50505050505050505050620001b9565b600080546001600160a01b038381166001600160a01b0319831681178455604051919092169283917f8be0079c531659141344cd1fd0a4f28419497f9722a3daafe3b4186f6b6457e09190a35050565b80516001600160a01b03811681146200017c57600080fd5b919050565b600080604083850312156200019557600080fd5b620001a08362000164565b9150620001b06020840162000164565b90509250929050565b608051612fae620001ff600039600081816105e201528181610c6f0152818161194601528181611c9d01528181611f63015281816120d5015261218c0152612fae6000f3fe6080604052600436106102555760003560e01c8063715018a611610139578063c5f1ccb5116100b6578063de74e57b1161007a578063de74e57b14610855578063de96f757146108f0578063e21f37ce14610926578063e62b9e6c1461093b578063f2fde38b14610968578063ff7bd03d1461098857600080fd5b8063c5f1ccb5146107b2578063ca4568da146107c7578063ca5eb5e114610802578063d0a1026014610822578063d5ce33891461083557600080fd5b8063aaccf1ec116100fd578063aaccf1ec1461070f578063b98bd07014610725578063bb0b6a5314610745578063bc70b35414610772578063c34c08e51461079257600080fd5b8063715018a6146106515780637d25a05e1461066657806382413eac146106a15780638da5cb5b146106d157806395382c2a146106ef57600080fd5b80632148893f116101d25780634af18f4f116101965780634af18f4f1461054b5780634ec7fb811461056b5780635535d461146105a35780635e280f11146105d05780635f42da09146106045780636324d7671461063157600080fd5b80632148893f14610495578063305a67a8146104cb57806333c2ff58146104eb5780633400288b146104fe5780633714c67e1461051e57600080fd5b80630e80f0b3116102195780630e80f0b314610308578063107a274a1461032857806313137d651461043857806317442b701461044b5780631f5e13341461046d57600080fd5b806302c750d814610261578063054564f01461028357806307089c91146102b657806307b18bde146102d25780630ae6d46b146102f257600080fd5b3661025c57005b600080fd5b34801561026d57600080fd5b5061028161027c3660046122d6565b6109a8565b005b34801561028f57600080fd5b506102a361029e3660046122f3565b610a4d565b6040519081526020015b60405180910390f35b3480156102c257600080fd5b506102a3671bc16d674ec8000081565b3480156102de57600080fd5b506102816102ed3660046122f3565b610a7e565b3480156102fe57600080fd5b506102a360045481565b34801561031457600080fd5b5061028161032336600461231f565b610b6a565b34801561033457600080fd5b506103e1610343366004612360565b6040805160c081018252600080825260208201819052918101829052606081018290526080810182905260a081019190915250600090815260096020908152604091829020825160c0810184528154815260018201546001600160a01b0390811693820193909352600282015490921692820192909252600382015460608201526004820154608082015260059091015460ff16151560a082015290565b60408051825181526020808401516001600160a01b0390811691830191909152838301511691810191909152606080830151908201526080808301519082015260a09182015115159181019190915260c0016102ad565b6102816104463660046123d9565b610c6d565b34801561045757600080fd5b50604080516001815260026020820152016102ad565b34801561047957600080fd5b50610482600181565b60405161ffff90911681526020016102ad565b3480156104a157600080fd5b506102a36104b03660046122d6565b6001600160a01b03166000908152600c602052604090205490565b3480156104d757600080fd5b506102816104e6366004612360565b610d19565b6102816104f9366004612491565b610ec9565b34801561050a57600080fd5b50610281610519366004612511565b610f37565b34801561052a57600080fd5b506102a36105393660046122d6565b600c6020526000908152604090205481565b34801561055757600080fd5b506102a3610566366004612360565b610f4d565b34801561057757600080fd5b5060075461058b906001600160a01b031681565b6040516001600160a01b0390911681526020016102ad565b3480156105af57600080fd5b506105c36105be36600461253f565b610f67565b6040516102ad91906125c2565b3480156105dc57600080fd5b5061058b7f000000000000000000000000000000000000000000000000000000000000000081565b34801561061057600080fd5b5061062461061f3660046122d6565b61100c565b6040516102ad91906125d5565b34801561063d57600080fd5b5061062461064c3660046122d6565b611078565b34801561065d57600080fd5b50610281611225565b34801561067257600080fd5b50610689610681366004612511565b600092915050565b6040516001600160401b0390911681526020016102ad565b3480156106ad57600080fd5b506106c16106bc366004612619565b611239565b60405190151581526020016102ad565b3480156106dd57600080fd5b506000546001600160a01b031661058b565b3480156106fb57600080fd5b5061028161070a36600461267f565b61124e565b34801561071b57600080fd5b506102a360085481565b34801561073157600080fd5b506102816107403660046126a1565b611593565b34801561075157600080fd5b506102a3610760366004612715565b60016020526000908152604090205481565b34801561077e57600080fd5b506105c361078d366004612730565b6115ad565b34801561079e57600080fd5b5060065461058b906001600160a01b031681565b3480156107be57600080fd5b50610281611755565b3480156107d357600080fd5b506107e76107e236600461279e565b6118b0565b604080518251815260209283015192810192909252016102ad565b34801561080e57600080fd5b5061028161081d3660046122d6565b61191f565b610281610830366004612830565b6119a5565b34801561084157600080fd5b5060035461058b906001600160a01b031681565b34801561086157600080fd5b506108b5610870366004612360565b60096020526000908152604090208054600182015460028301546003840154600485015460059095015493946001600160a01b03938416949290931692909160ff1686565b604080519687526001600160a01b039586166020880152939094169285019290925260608401526080830152151560a082015260c0016102ad565b3480156108fc57600080fd5b506102a361090b3660046122d6565b6001600160a01b03166000908152600b602052604090205490565b34801561093257600080fd5b506105c3611b80565b34801561094757600080fd5b506102a36109563660046122d6565b600b6020526000908152604090205481565b34801561097457600080fd5b506102816109833660046122d6565b611b8d565b34801561099457600080fd5b506106c16109a33660046128b0565b611bcb565b6109b0611c01565b6001600160a01b038116610a035760405162461bcd60e51b8152602060048201526015602482015274496e76616c696420746f6b656e206164647265737360581b60448201526064015b60405180910390fd5b600780546001600160a01b0319166001600160a01b0383169081179091556040517f12c2f04b62c826f2e6c2a3b6f043866d97a39b7289020e46ec2bdecdd4a54a5c90600090a250565b600a6020528160005260406000208181548110610a6957600080fd5b90600052602060002001600091509150505481565b610a86611c01565b6001600160a01b038216610ad05760405162461bcd60e51b8152602060048201526011602482015270125b9d985b1a59081c9958da5c1a595b9d607a1b60448201526064016109fa565b6000826001600160a01b03168260405160006040518083038185875af1925050503d8060008114610b1d576040519150601f19603f3d011682016040523d82523d6000602084013e610b22565b606091505b5050905080610b655760405162461bcd60e51b815260206004820152600f60248201526e151c985b9cd9995c8819985a5b1959608a1b60448201526064016109fa565b505050565b610b72611c01565b6001600160a01b038216610bbc5760405162461bcd60e51b8152602060048201526011602482015270125b9d985b1a59081c9958da5c1a595b9d607a1b60448201526064016109fa565b60405163a9059cbb60e01b81526001600160a01b0383811660048301526024820183905284169063a9059cbb906044016020604051808303816000875af1158015610c0b573d6000803e3d6000fd5b505050506040513d601f19601f82011682018060405250810190610c2f91906128cc565b610b655760405162461bcd60e51b815260206004820152600f60248201526e151c985b9cd9995c8819985a5b1959608a1b60448201526064016109fa565b7f00000000000000000000000000000000000000000000000000000000000000006001600160a01b03163314610cb8576040516391ac5e4f60e01b81523360048201526024016109fa565b60208701803590610cd290610ccd908a612715565b611c2e565b14610d1057610ce46020880188612715565b60405163309afaf360e21b815263ffffffff9091166004820152602088013560248201526044016109fa565b50505050505050565b6000818152600960205260409020600581015460ff16610d705760405162461bcd60e51b81526020600482015260126024820152714c697374696e67206e6f742061637469766560701b60448201526064016109fa565b60018101546001600160a01b03163314610dc05760405162461bcd60e51b81526020600482015260116024820152702737ba103634b9ba34b7339037bbb732b960791b60448201526064016109fa565b60058101805460ff19169055600381015415610e98576002810154600382015460405163a9059cbb60e01b815233600482015260248101919091526001600160a01b039091169063a9059cbb906044016020604051808303816000875af1158015610e2f573d6000803e3d6000fd5b505050506040513d601f19601f82011682018060405250810190610e5391906128cc565b610e985760405162461bcd60e51b815260206004820152601660248201527514995cdbdd5c98d9481c995d1d5c9b8819985a5b195960521b60448201526064016109fa565b604051339083907f8e25282255ab31897df2b0456bb993ac7f84d376861aefd84901d2d63a7428a290600090a35050565b610f2f8585858080601f016020809104026020016040519081016040528093929190818152602001838380828437600092019190915250610f1392508a91506001905087876115ad565b6040518060400160405280348152602001600081525032611c6a565b505050505050565b610f3f611c01565b610f498282611d6a565b5050565b6000610f61671bc16d674ec80000836128ff565b92915050565b600260209081526000928352604080842090915290825290208054610f8b90612916565b80601f0160208091040260200160405190810160405280929190818152602001828054610fb790612916565b80156110045780601f10610fd957610100808354040283529160200191611004565b820191906000526020600020905b815481529060010190602001808311610fe757829003601f168201915b505050505081565b6001600160a01b0381166000908152600a602090815260409182902080548351818402810184019094528084526060939283018282801561106c57602002820191906000526020600020905b815481526020019060010190808311611058575b50505050509050919050565b6001600160a01b0381166000908152600a602090815260408083208054825181850281018501909352808352606094938301828280156110d757602002820191906000526020600020905b8154815260200190600101908083116110c3575b505050505090506000805b825181101561113d57600960008483815181106111015761110161294a565b60209081029190910181015182528101919091526040016000206005015460ff1615611135578161113181612960565b9250505b6001016110e2565b506000816001600160401b0381111561115857611158612979565b604051908082528060200260200182016040528015611181578160200160208202803683370190505b5090506000805b845181101561121a57600960008683815181106111a7576111a761294a565b60209081029190910181015182528101919091526040016000206005015460ff1615611212578481815181106111df576111df61294a565b60200260200101518383815181106111f9576111f961294a565b60209081029190910101528161120e81612960565b9250505b600101611188565b509095945050505050565b61122d611c01565b6112376000611dbf565b565b6001600160a01b03811630145b949350505050565b6000828152600960205260409020600581015460ff166112a55760405162461bcd60e51b81526020600482015260126024820152714c697374696e67206e6f742061637469766560701b60448201526064016109fa565b6000821180156112b9575080600301548211155b6112f65760405162461bcd60e51b815260206004820152600e60248201526d125b9d985b1a5908185b5bdd5b9d60921b60448201526064016109fa565b6007546001600160a01b03166113455760405162461bcd60e51b8152602060048201526014602482015273115b995c99de481d1bdad95b881b9bdd081cd95d60621b60448201526064016109fa565b600081600401548361135791906128ff565b6007546040516323b872dd60e01b8152336004820152306024820152604481018390529192506001600160a01b0316906323b872dd906064016020604051808303816000875af11580156113af573d6000803e3d6000fd5b505050506040513d601f19601f820116820180604052508101906113d391906128cc565b6114175760405162461bcd60e51b8152602060048201526015602482015274115b995c99de481c185e5b595b9d0819985a5b1959605a1b60448201526064016109fa565b60018201546001600160a01b03166000908152600c60205260408120805483929061144390849061298f565b925050819055508282600301600082825461145e91906129a2565b9091555050600382015460000361147c5760058201805460ff191690555b600282015460405163a9059cbb60e01b8152336004820152602481018590526001600160a01b039091169063a9059cbb906044016020604051808303816000875af11580156114cf573d6000803e3d6000fd5b505050506040513d601f19601f820116820180604052508101906114f391906128cc565b61153f5760405162461bcd60e51b815260206004820152601860248201527f5265736f75726365207472616e73666572206661696c6564000000000000000060448201526064016109fa565b600182015460408051858152602081018490526001600160a01b0390921691339187917f6e0adfaa3e54a713212abdd091969ab9cb7d5bc812389262d81bade4774a7c28910160405180910390a450505050565b61159b611c01565b610f496115a88284612a0d565b611e0f565b63ffffffff8416600090815260026020908152604080832061ffff871684529091528120805460609291906115e190612916565b80601f016020809104026020016040519081016040528092919081815260200182805461160d90612916565b801561165a5780601f1061162f5761010080835404028352916020019161165a565b820191906000526020600020905b81548152906001019060200180831161163d57829003601f168201915b5050505050905080516000036116aa5783838080601f0160208091040260200160405190810160405280939291908181526020018383808284376000920191909152509294506112469350505050565b60008390036116ba579050611246565b600283106117385761170184848080601f016020809104026020016040519081016040528093929190818152602001838380828437600092019190915250611f2192505050565b8061170f8460028188612b32565b60405160200161172193929190612b5c565b604051602081830303815290604052915050611246565b8383604051639a6d49cd60e01b81526004016109fa929190612b84565b336000908152600c6020526040902054806117ab5760405162461bcd60e51b81526020600482015260166024820152754e6f2062616c616e636520746f20776974686472617760501b60448201526064016109fa565b336000818152600c602052604080822091909155600754905163a9059cbb60e01b81526004810192909252602482018390526001600160a01b03169063a9059cbb906044016020604051808303816000875af115801561180f573d6000803e3d6000fd5b505050506040513d601f19601f8201168201806040525081019061183391906128cc565b6118785760405162461bcd60e51b8152602060048201526016602482015275115b995c99de481d1c985b9cd9995c8819985a5b195960521b60448201526064016109fa565b60405181815233907f3e191f34827057ae7a024d0827da720a2f1b54e6955366eb13e7e12493a9f8a39060200160405180910390a250565b60408051808201909152600080825260208201526119148787878080601f01602080910402602001604051908101604052809392919081815260200183838082843760009201919091525061190e92508c91506001905089896115ad565b85611f4d565b979650505050505050565b611927611c01565b60405163ca5eb5e160e01b81526001600160a01b0382811660048301527f0000000000000000000000000000000000000000000000000000000000000000169063ca5eb5e190602401600060405180830381600087803b15801561198a57600080fd5b505af115801561199e573d6000803e3d6000fd5b5050505050565b600380546001600160a01b0319166001600160a01b038916179055600486905560056119d2858783612bfb565b50600680546001600160a01b0319166001600160a01b03851617905560006119fa868661202e565b90506000611a08878761204e565b90506000611a16888861205e565b6008805491925083918c916000919082611a2f83612960565b909155506040805160c0810182528281526001600160a01b038087166020808401828152888416858701818152606087018f8152671bc16d674ec8000060808901908152600160a08a0181815260008d8152600989528c81209b518c5596518b83018054918c166001600160a01b0319928316179055945160028c01805491909b1695169490941790985590516003890155516004880155516005909601805496151560ff1990971696909617909555918252600a8152848220805493840181558252808220909201859055918252600b905290812080549293508892909190611b1a90849061298f565b909155505060408051878152671bc16d674ec8000060208201526001600160a01b03808516929086169184917f0f8cf38b335a8ff93b74b80b8b70c14f3c15ca0d8d08d4257b482d8e86bc46c9910160405180910390a450505050505050505050505050565b60058054610f8b90612916565b611b95611c01565b6001600160a01b038116611bbf57604051631e4fbdf760e01b8152600060048201526024016109fa565b611bc881611dbf565b50565b6000602082018035906001908390611be39086612715565b63ffffffff1681526020810191909152604001600020541492915050565b6000546001600160a01b031633146112375760405163118cdaa760e01b81523360048201526024016109fa565b63ffffffff811660009081526001602052604081205480610f615760405163f6ff4fb760e01b815263ffffffff841660048201526024016109fa565b611c7261227a565b6000611c8184600001516120a9565b602085015190915015611c9b57611c9b84602001516120d1565b7f00000000000000000000000000000000000000000000000000000000000000006001600160a01b0316632637a450826040518060a001604052808b63ffffffff168152602001611ceb8c611c2e565b81526020018a815260200189815260200160008960200151111515815250866040518463ffffffff1660e01b8152600401611d27929190612cba565b60806040518083038185885af1158015611d45573d6000803e3d6000fd5b50505050506040513d601f19601f820116820180604052508101906119149190612d81565b63ffffffff8216600081815260016020908152604091829020849055815192835282018390527f238399d427b947898edb290f5ff0f9109849b1c3ba196a42e35f00c50a54b98b910160405180910390a15050565b600080546001600160a01b038381166001600160a01b0319831681178455604051919092169283917f8be0079c531659141344cd1fd0a4f28419497f9722a3daafe3b4186f6b6457e09190a35050565b60005b8151811015611ee657611e41828281518110611e3057611e3061294a565b602002602001015160400151611f21565b818181518110611e5357611e5361294a565b60200260200101516040015160026000848481518110611e7557611e7561294a565b60200260200101516000015163ffffffff1663ffffffff1681526020019081526020016000206000848481518110611eaf57611eaf61294a565b60200260200101516020015161ffff1661ffff1681526020019081526020016000209081611edd9190612dd7565b50600101611e12565b507fbe4864a8e820971c0247f5992e2da559595f7bf076a21cb5928d443d2a13b67481604051611f169190612e96565b60405180910390a150565b600281015161ffff8116600314610f495781604051639a6d49cd60e01b81526004016109fa91906125c2565b60408051808201909152600080825260208201527f00000000000000000000000000000000000000000000000000000000000000006001600160a01b031663ddc28c586040518060a001604052808863ffffffff168152602001611fb089611c2e565b8152602001878152602001868152602001851515815250306040518363ffffffff1660e01b8152600401611fe5929190612cba565b6040805180830381865afa158015612001573d6000803e3d6000fd5b505050506040513d601f19601f820116820180604052508101906120259190612f21565b95945050505050565b600061203e602c600c8486612b32565b61204791612f3d565b9392505050565b600061203e604c602c8486612b32565b606061206d82604c8186612b32565b8080601f016020809104026020016040519081016040528093929190818152602001838380828437600092019190915250929695505050505050565b60008134146120cd576040516304fb820960e51b81523460048201526024016109fa565b5090565b60007f00000000000000000000000000000000000000000000000000000000000000006001600160a01b031663e4fe1d946040518163ffffffff1660e01b8152600401602060405180830381865afa158015612131573d6000803e3d6000fd5b505050506040513d601f19601f820116820180604052508101906121559190612f5b565b90506001600160a01b03811661217e576040516329b99a9560e11b815260040160405180910390fd5b6040805133602482018190527f00000000000000000000000000000000000000000000000000000000000000006001600160a01b03818116604485015260648085018890528551808603909101815260849094019094526020830180516001600160e01b03166323b872dd60e01b179052610f49938516928690612203908590612209565b50505050565b600080602060008451602086016000885af18061222c576040513d6000823e3d81fd5b50506000513d91508115612244578060011415612251565b6001600160a01b0384163b155b1561220357604051635274afe760e01b81526001600160a01b03851660048201526024016109fa565b60405180606001604052806000801916815260200160006001600160401b031681526020016122bc604051806040016040528060008152602001600081525090565b905290565b6001600160a01b0381168114611bc857600080fd5b6000602082840312156122e857600080fd5b8135612047816122c1565b6000806040838503121561230657600080fd5b8235612311816122c1565b946020939093013593505050565b60008060006060848603121561233457600080fd5b833561233f816122c1565b9250602084013561234f816122c1565b929592945050506040919091013590565b60006020828403121561237257600080fd5b5035919050565b60006060828403121561238b57600080fd5b50919050565b60008083601f8401126123a357600080fd5b5081356001600160401b038111156123ba57600080fd5b6020830191508360208285010111156123d257600080fd5b9250929050565b600080600080600080600060e0888a0312156123f457600080fd5b6123fe8989612379565b96506060880135955060808801356001600160401b038082111561242157600080fd5b61242d8b838c01612391565b909750955060a08a01359150612442826122c1565b90935060c0890135908082111561245857600080fd5b506124658a828b01612391565b989b979a50959850939692959293505050565b803563ffffffff8116811461248c57600080fd5b919050565b6000806000806000606086880312156124a957600080fd5b6124b286612478565b945060208601356001600160401b03808211156124ce57600080fd5b6124da89838a01612391565b909650945060408801359150808211156124f357600080fd5b5061250088828901612391565b969995985093965092949392505050565b6000806040838503121561252457600080fd5b61231183612478565b803561ffff8116811461248c57600080fd5b6000806040838503121561255257600080fd5b61255b83612478565b91506125696020840161252d565b90509250929050565b60005b8381101561258d578181015183820152602001612575565b50506000910152565b600081518084526125ae816020860160208601612572565b601f01601f19169290920160200192915050565b6020815260006120476020830184612596565b6020808252825182820181905260009190848201906040850190845b8181101561260d578351835292840192918401916001016125f1565b50909695505050505050565b60008060008060a0858703121561262f57600080fd5b6126398686612379565b935060608501356001600160401b0381111561265457600080fd5b61266087828801612391565b9094509250506080850135612674816122c1565b939692955090935050565b6000806040838503121561269257600080fd5b50508035926020909101359150565b600080602083850312156126b457600080fd5b82356001600160401b03808211156126cb57600080fd5b818501915085601f8301126126df57600080fd5b8135818111156126ee57600080fd5b8660208260051b850101111561270357600080fd5b60209290920196919550909350505050565b60006020828403121561272757600080fd5b61204782612478565b6000806000806060858703121561274657600080fd5b61274f85612478565b935061275d6020860161252d565b925060408501356001600160401b0381111561277857600080fd5b61278487828801612391565b95989497509550505050565b8015158114611bc857600080fd5b600080600080600080608087890312156127b757600080fd5b6127c087612478565b955060208701356001600160401b03808211156127dc57600080fd5b6127e88a838b01612391565b9097509550604089013591508082111561280157600080fd5b5061280e89828a01612391565b909450925050606087013561282281612790565b809150509295509295509295565b600080600080600080600060a0888a03121561284b57600080fd5b8735612856816122c1565b96506020880135955060408801356001600160401b038082111561287957600080fd5b6128858b838c01612391565b909750955060608a0135915061289a826122c1565b9093506080890135908082111561245857600080fd5b6000606082840312156128c257600080fd5b6120478383612379565b6000602082840312156128de57600080fd5b815161204781612790565b634e487b7160e01b600052601160045260246000fd5b8082028115828204841417610f6157610f616128e9565b600181811c9082168061292a57607f821691505b60208210810361238b57634e487b7160e01b600052602260045260246000fd5b634e487b7160e01b600052603260045260246000fd5b600060018201612972576129726128e9565b5060010190565b634e487b7160e01b600052604160045260246000fd5b80820180821115610f6157610f616128e9565b81810381811115610f6157610f616128e9565b604051606081016001600160401b03811182821017156129d7576129d7612979565b60405290565b604051601f8201601f191681016001600160401b0381118282101715612a0557612a05612979565b604052919050565b60006001600160401b0380841115612a2757612a27612979565b8360051b6020612a388183016129dd565b868152918501918181019036841115612a5057600080fd5b865b84811015612b2657803586811115612a6a5760008081fd5b88016060368290031215612a7e5760008081fd5b612a866129b5565b612a8f82612478565b8152612a9c86830161252d565b8682015260408083013589811115612ab45760008081fd5b9290920191601f3681850112612aca5760008081fd5b83358a811115612adc57612adc612979565b612aed818301601f19168a016129dd565b91508082523689828701011115612b045760008081fd5b808986018a840137600090820189015290820152845250918301918301612a52565b50979650505050505050565b60008085851115612b4257600080fd5b83861115612b4f57600080fd5b5050820193919092039150565b60008451612b6e818460208901612572565b8201838582376000930192835250909392505050565b60208152816020820152818360408301376000818301604090810191909152601f909201601f19160101919050565b601f821115610b65576000816000526020600020601f850160051c81016020861015612bdc5750805b601f850160051c820191505b81811015610f2f57828155600101612be8565b6001600160401b03831115612c1257612c12612979565b612c2683612c208354612916565b83612bb3565b6000601f841160018114612c5a5760008515612c425750838201355b600019600387901b1c1916600186901b17835561199e565b600083815260209020601f19861690835b82811015612c8b5786850135825560209485019460019092019101612c6b565b5086821015612ca85760001960f88860031b161c19848701351681555b505060018560011b0183555050505050565b6040815263ffffffff8351166040820152602083015160608201526000604084015160a06080840152612cf060e0840182612596565b90506060850151603f198483030160a0850152612d0d8282612596565b60809690960151151560c08501525050506001600160a01b039190911660209091015290565b600060408284031215612d4557600080fd5b604051604081018181106001600160401b0382111715612d6757612d67612979565b604052825181526020928301519281019290925250919050565b600060808284031215612d9357600080fd5b612d9b6129b5565b8251815260208301516001600160401b0381168114612db957600080fd5b6020820152612dcb8460408501612d33565b60408201529392505050565b81516001600160401b03811115612df057612df0612979565b612e0481612dfe8454612916565b84612bb3565b602080601f831160018114612e395760008415612e215750858301515b600019600386901b1c1916600185901b178555610f2f565b600085815260208120601f198616915b82811015612e6857888601518255948401946001909101908401612e49565b5085821015612e865787850151600019600388901b60f8161c191681555b5050505050600190811b01905550565b600060208083018184528085518083526040925060408601915060408160051b87010184880160005b83811015612f1357888303603f190185528151805163ffffffff1684528781015161ffff16888501528601516060878501819052612eff81860183612596565b968901969450505090860190600101612ebf565b509098975050505050505050565b600060408284031215612f3357600080fd5b6120478383612d33565b80356020831015610f6157600019602084900360031b1b1692915050565b600060208284031215612f6d57600080fd5b8151612047816122c156fea2646970667358221220ef4878b2b19e9c4035248e9be8259a6898478f0a3a3a56de5f3f15d89ce3d79464736f6c63430008160033",
  "devdoc": {
    "errors": {
      "OwnableInvalidOwner(address)": [
        {
          "details": "The owner is not a valid owner account. (eg. `address(0)`)"
        }
      ],
      "OwnableUnauthorizedAccount(address)": [
        {
          "details": "The caller account is not authorized to perform an operation."
        }
      ],
      "SafeERC20FailedOperation(address)": [
        {
          "details": "An operation with an ERC-20 token failed."
        }
      ]
    },
    "kind": "dev",
    "methods": {
      "allowInitializePath((uint32,bytes32,uint64))": {
        "details": "This indicates to the endpoint that the OApp has enabled msgs for this particular path to be received.This defaults to assuming if a peer has been set, its initialized. Can be overridden by the OApp if there is other logic to determine this.",
        "params": {
          "origin": "The origin information containing the source endpoint and sender address."
        },
        "returns": {
          "_0": "Whether the path has been initialized."
        }
      },
      "buyResources(uint256,uint256)": {
        "params": {
          "_amount": "Amount of resources to buy",
          "_listingId": "The listing ID to buy from"
        }
      },
      "calculateCost(uint256)": {
        "params": {
          "_amount": "Amount of resources"
        },
        "returns": {
          "_0": "Cost in energy tokens"
        }
      },
      "cancelListing(uint256)": {
        "params": {
          "_listingId": "The listing ID to cancel"
        }
      },
      "combineOptions(uint32,uint16,bytes)": {
        "details": "If there is an enforced lzReceive option: - {gasLimit: 200k, msg.value: 1 ether} AND a caller supplies a lzReceive option: {gasLimit: 100k, msg.value: 0.5 ether} - The resulting options will be {gasLimit: 300k, msg.value: 1.5 ether} when the message is executed on the remote lzReceive() function.This presence of duplicated options is handled off-chain in the verifier/executor.",
        "params": {
          "_eid": "The endpoint ID.",
          "_extraOptions": "Additional options passed by the caller.",
          "_msgType": "The OAPP message type."
        },
        "returns": {
          "_0": "options The combination of caller specified options AND enforced options."
        }
      },
      "constructor": {
        "params": {
          "_endpoint": "The local chain's LayerZero Endpoint V2 address",
          "_owner": "The address permitted to configure this OApp"
        }
      },
      "emergencyWithdrawTokens(address,address,uint256)": {
        "params": {
          "_amount": "Amount to withdraw",
          "_to": "Recipient address",
          "_token": "Token address"
        }
      },
      "getActiveSellerListings(address)": {
        "params": {
          "_seller": "Seller address"
        },
        "returns": {
          "_0": "Array of active listing IDs"
        }
      },
      "getListing(uint256)": {
        "params": {
          "_listingId": "The listing ID"
        },
        "returns": {
          "_0": "Listing details"
        }
      },
      "getSellerBalance(address)": {
        "params": {
          "_seller": "Seller address"
        },
        "returns": {
          "_0": "Energy balance"
        }
      },
      "getSellerListings(address)": {
        "params": {
          "_seller": "Seller address"
        },
        "returns": {
          "_0": "Array of listing IDs"
        }
      },
      "getTotalVolume(address)": {
        "params": {
          "_resourceToken": "Resource token address"
        },
        "returns": {
          "_0": "Total volume listed (all-time)"
        }
      },
      "isComposeMsgSender((uint32,bytes32,uint64),bytes,address)": {
        "details": "_origin The origin information containing the source endpoint and sender address.  - srcEid: The source chain endpoint ID.  - sender: The sender address on the src chain.  - nonce: The nonce of the message._message The lzReceive payload.Applications can optionally choose to implement separate composeMsg senders that are NOT the bridging layer.The default sender IS the OAppReceiver implementer.",
        "params": {
          "_sender": "The sender address."
        },
        "returns": {
          "_0": "isSender Is a valid sender."
        }
      },
      "lzCompose(address,bytes32,bytes,address,bytes)": {
        "details": "Called by LayerZero when resource OFT is received with compose message",
        "params": {
          "_executor": "Executor address that delivered the message",
          "_from": "The OFT contract that sent the compose message (resource token address)",
          "_guid": "Global unique ID for tracking this message",
          "_message": "The compose message containing [nonce][srcEid][amountLD][composeFrom][composeMsg]"
        }
      },
      "lzReceive((uint32,bytes32,uint64),bytes32,bytes,address,bytes)": {
        "details": "Entry point for receiving messages or packets from the endpoint.Entry point for receiving msg/packet from the LayerZero endpoint.",
        "params": {
          "_executor": "The address of the executor for the received message.",
          "_extraData": "Additional arbitrary data provided by the corresponding executor.",
          "_guid": "The unique identifier for the received LayerZero message.",
          "_message": "The payload of the received message.",
          "_origin": "The origin information containing the source endpoint and sender address.  - srcEid: The source chain endpoint ID.  - sender: The sender address on the src chain.  - nonce: The nonce of the message."
        }
      },
      "nextNonce(uint32,bytes32)": {
        "details": "_srcEid The source endpoint ID._sender The sender address.The path nonce starts from 1. If 0 is returned it means that there is NO nonce ordered enforcement.Is required by the off-chain executor to determine the OApp expects msg execution is ordered.This is also enforced by the OApp.By default this is NOT enabled. ie. nextNonce is hardcoded to return 0.",
        "returns": {
          "nonce": "The next nonce."
        }
      },
      "oAppVersion()": {
        "returns": {
          "receiverVersion": "The version of the OAppReceiver.sol implementation.",
          "senderVersion": "The version of the OAppSender.sol implementation."
        }
      },
      "owner()": {
        "details": "Returns the address of the current owner."
      },
      "renounceOwnership()": {
        "details": "Leaves the contract without owner. It will not be possible to call `onlyOwner` functions. Can only be called by the current owner. NOTE: Renouncing ownership will leave the contract without an owner, thereby disabling any functionality that is only available to the owner."
      },
      "setDelegate(address)": {
        "details": "Only the owner/admin of the OApp can call this function.Provides the ability for a delegate to set configs, on behalf of the OApp, directly on the Endpoint contract.",
        "params": {
          "_delegate": "The address of the delegate to be set."
        }
      },
      "setEnergyToken(address)": {
        "params": {
          "_energyToken": "Energy token (MyOFTMock) address"
        }
      },
      "setEnforcedOptions((uint32,uint16,bytes)[])": {
        "details": "Sets the enforced options for specific endpoint and message type combinations.Only the owner/admin of the OApp can call this function.Provides a way for the OApp to enforce things like paying for PreCrime, AND/OR minimum dst lzReceive gas amounts etc.These enforced options can vary as the potential options/execution on the remote may differ as per the msgType. eg. Amount of lzReceive() gas necessary to deliver a lzCompose() message adds overhead you dont want to pay if you are only making a standard LayerZero message ie. lzReceive() WITHOUT sendCompose().",
        "params": {
          "_enforcedOptions": "An array of EnforcedOptionParam structures specifying enforced options."
        }
      },
      "setPeer(uint32,bytes32)": {
        "details": "Only the owner/admin of the OApp can call this function.Indicates that the peer is trusted to send LayerZero messages to this OApp.Set this to bytes32(0) to remove the peer address.Peer is a bytes32 to accommodate non-evm chains.",
        "params": {
          "_eid": "The endpoint ID.",
          "_peer": "The address of the peer to be associated with the corresponding endpoint."
        }
      },
      "transferOwnership(address)": {
        "details": "Transfers ownership of the contract to a new account (`newOwner`). Can only be called by the current owner."
      },
      "withdrawNative(address,uint256)": {
        "params": {
          "_amount": "Amount to withdraw",
          "_to": "Recipient address"
        }
      }
    },
    "version": 1
  },
  "userdoc": {
    "kind": "user",
    "methods": {
      "PRICE_PER_RESOURCE()": {
        "notice": "Fixed exchange rate: 2 energy = 1 resource"
      },
      "SEND()": {
        "notice": "Msg type for sending, for use in OAppOptionsType3 as an enforced option"
      },
      "allowInitializePath((uint32,bytes32,uint64))": {
        "notice": "Checks if the path initialization is allowed based on the provided origin."
      },
      "buyResources(uint256,uint256)": {
        "notice": "Buy resources from a listing"
      },
      "calculateCost(uint256)": {
        "notice": "Calculate cost in energy tokens for a given amount of resources"
      },
      "cancelListing(uint256)": {
        "notice": "Cancel a listing and return resources to seller"
      },
      "combineOptions(uint32,uint16,bytes)": {
        "notice": "Combines options for a given endpoint and message type."
      },
      "constructor": {
        "notice": "Initialize with Endpoint V2 and owner address"
      },
      "emergencyWithdrawTokens(address,address,uint256)": {
        "notice": "Emergency withdraw tokens (admin only)"
      },
      "endpoint()": {
        "notice": "Retrieves the LayerZero endpoint associated with the OApp."
      },
      "energyToken()": {
        "notice": "Energy token (MyOFTMock) address - used for buying resources"
      },
      "getActiveSellerListings(address)": {
        "notice": "Get active listings for a seller"
      },
      "getListing(uint256)": {
        "notice": "Get listing details"
      },
      "getSellerBalance(address)": {
        "notice": "Get seller's energy balance (from sales)"
      },
      "getSellerListings(address)": {
        "notice": "Get all listing IDs for a seller"
      },
      "getTotalVolume(address)": {
        "notice": "Get total marketplace volume for a resource token"
      },
      "isComposeMsgSender((uint32,bytes32,uint64),bytes,address)": {
        "notice": "Indicates whether an address is an approved composeMsg sender to the Endpoint."
      },
      "listings(uint256)": {
        "notice": "All listings by ID"
      },
      "lzCompose(address,bytes32,bytes,address,bytes)": {
        "notice": "Handle composed message - list resources for sale"
      },
      "nextListingId()": {
        "notice": "Counter for listing IDs"
      },
      "nextNonce(uint32,bytes32)": {
        "notice": "Retrieves the next nonce for a given source endpoint and sender address."
      },
      "oAppVersion()": {
        "notice": "Retrieves the OApp version information."
      },
      "peers(uint32)": {
        "notice": "Retrieves the peer (OApp) associated with a corresponding endpoint."
      },
      "quoteSendBytes(uint32,bytes,bytes,bool)": {
        "notice": "Quote sending bytes cross-chain"
      },
      "sellerEnergyBalance(address)": {
        "notice": "Energy token balance per seller (from sales)"
      },
      "sellerListings(address,uint256)": {
        "notice": "Track seller's active listing IDs"
      },
      "sendBytes(uint32,bytes,bytes)": {
        "notice": "Send raw bytes to a remote chain"
      },
      "setDelegate(address)": {
        "notice": "Sets the delegate address for the OApp."
      },
      "setEnergyToken(address)": {
        "notice": "Set the energy token address (owner only)"
      },
      "setPeer(uint32,bytes32)": {
        "notice": "Sets the peer address (OApp instance) for a corresponding endpoint."
      },
      "totalVolume(address)": {
        "notice": "Track total volume per resource token"
      },
      "withdrawEnergy()": {
        "notice": "Withdraw energy token proceeds from sales"
      },
      "withdrawNative(address,uint256)": {
        "notice": "Withdraw native tokens (admin only)"
      }
    },
    "version": 1
  },
  "storageLayout": {
    "storage": [
      {
        "astId": 3408,
        "contract": "contracts/mocks/ResourceOFTComposerMock.sol:ResourceOFTComposerMock",
        "label": "_owner",
        "offset": 0,
        "slot": "0",
        "type": "t_address"
      },
      {
        "astId": 1927,
        "contract": "contracts/mocks/ResourceOFTComposerMock.sol:ResourceOFTComposerMock",
        "label": "peers",
        "offset": 0,
        "slot": "1",
        "type": "t_mapping(t_uint32,t_bytes32)"
      },
      {
        "astId": 2531,
        "contract": "contracts/mocks/ResourceOFTComposerMock.sol:ResourceOFTComposerMock",
        "label": "enforcedOptions",
        "offset": 0,
        "slot": "2",
        "type": "t_mapping(t_uint32,t_mapping(t_uint16,t_bytes_storage))"
      },
      {
        "astId": 6024,
        "contract": "contracts/mocks/ResourceOFTComposerMock.sol:ResourceOFTComposerMock",
        "label": "from",
        "offset": 0,
        "slot": "3",
        "type": "t_address"
      },
      {
        "astId": 6026,
        "contract": "contracts/mocks/ResourceOFTComposerMock.sol:ResourceOFTComposerMock",
        "label": "guid",
        "offset": 0,
        "slot": "4",
        "type": "t_bytes32"
      },
      {
        "astId": 6028,
        "contract": "contracts/mocks/ResourceOFTComposerMock.sol:ResourceOFTComposerMock",
        "label": "message",
        "offset": 0,
        "slot": "5",
        "type": "t_bytes_storage"
      },
      {
        "astId": 6030,
        "contract": "contracts/mocks/ResourceOFTComposerMock.sol:ResourceOFTComposerMock",
        "label": "executor",
        "offset": 0,
        "slot": "6",
        "type": "t_address"
      },
      {
        "astId": 6041,
        "contract": "contracts/mocks/ResourceOFTComposerMock.sol:ResourceOFTComposerMock",
        "label": "energyToken",
        "offset": 0,
        "slot": "7",
        "type": "t_address"
      },
      {
        "astId": 6045,
        "contract": "contracts/mocks/ResourceOFTComposerMock.sol:ResourceOFTComposerMock",
        "label": "nextListingId",
        "offset": 0,
        "slot": "8",
        "type": "t_uint256"
      },
      {
        "astId": 6065,
        "contract": "contracts/mocks/ResourceOFTComposerMock.sol:ResourceOFTComposerMock",
        "label": "listings",
        "offset": 0,
        "slot": "9",
        "type": "t_mapping(t_uint256,t_struct(Listing)6059_storage)"
      },
      {
        "astId": 6071,
        "contract": "contracts/mocks/ResourceOFTComposerMock.sol:ResourceOFTComposerMock",
        "label": "sellerListings",
        "offset": 0,
        "slot": "10",
        "type": "t_mapping(t_address,t_array(t_uint256)dyn_storage)"
      },
      {
        "astId": 6076,
        "contract": "contracts/mocks/ResourceOFTComposerMock.sol:ResourceOFTComposerMock",
        "label": "totalVolume",
        "offset": 0,
        "slot": "11",
        "type": "t_mapping(t_address,t_uint256)"
      },
      {
        "astId": 6081,
        "contract": "contracts/mocks/ResourceOFTComposerMock.sol:ResourceOFTComposerMock",
        "label": "sellerEnergyBalance",
        "offset": 0,
        "slot": "12",
        "type": "t_mapping(t_address,t_uint256)"
      }
    ],
    "types": {
      "t_address": {
        "encoding": "inplace",
        "label": "address",
        "numberOfBytes": "20"
      },
      "t_array(t_uint256)dyn_storage": {
        "base": "t_uint256",
        "encoding": "dynamic_array",
        "label": "uint256[]",
        "numberOfBytes": "32"
      },
      "t_bool": {
        "encoding": "inplace",
        "label": "bool",
        "numberOfBytes": "1"
      },
      "t_bytes32": {
        "encoding": "inplace",
        "label": "bytes32",
        "numberOfBytes": "32"
      },
      "t_bytes_storage": {
        "encoding": "bytes",
        "label": "bytes",
        "numberOfBytes": "32"
      },
      "t_mapping(t_address,t_array(t_uint256)dyn_storage)": {
        "encoding": "mapping",
        "key": "t_address",
        "label": "mapping(address => uint256[])",
        "numberOfBytes": "32",
        "value": "t_array(t_uint256)dyn_storage"
      },
      "t_mapping(t_address,t_uint256)": {
        "encoding": "mapping",
        "key": "t_address",
        "label": "mapping(address => uint256)",
        "numberOfBytes": "32",
        "value": "t_uint256"
      },
      "t_mapping(t_uint16,t_bytes_storage)": {
        "encoding": "mapping",
        "key": "t_uint16",
        "label": "mapping(uint16 => bytes)",
        "numberOfBytes": "32",
        "value": "t_bytes_storage"
      },
      "t_mapping(t_uint256,t_struct(Listing)6059_storage)": {
        "encoding": "mapping",
        "key": "t_uint256",
        "label": "mapping(uint256 => struct ResourceOFTComposerMock.Listing)",
        "numberOfBytes": "32",
        "value": "t_struct(Listing)6059_storage"
      },
      "t_mapping(t_uint32,t_bytes32)": {
        "encoding": "mapping",
        "key": "t_uint32",
        "label": "mapping(uint32 => bytes32)",
        "numberOfBytes": "32",
        "value": "t_bytes32"
      },
      "t_mapping(t_uint32,t_mapping(t_uint16,t_bytes_storage))": {
        "encoding": "mapping",
        "key": "t_uint32",
        "label": "mapping(uint32 => mapping(uint16 => bytes))",
        "numberOfBytes": "32",
        "value": "t_mapping(t_uint16,t_bytes_storage)"
      },
      "t_struct(Listing)6059_storage": {
        "encoding": "inplace",
        "label": "struct ResourceOFTComposerMock.Listing",
        "members": [
          {
            "astId": 6048,
            "contract": "contracts/mocks/ResourceOFTComposerMock.sol:ResourceOFTComposerMock",
            "label": "listingId",
            "offset": 0,
            "slot": "0",
            "type": "t_uint256"
          },
          {
            "astId": 6050,
            "contract": "contracts/mocks/ResourceOFTComposerMock.sol:ResourceOFTComposerMock",
            "label": "seller",
            "offset": 0,
            "slot": "1",
            "type": "t_address"
          },
          {
            "astId": 6052,
            "contract": "contracts/mocks/ResourceOFTComposerMock.sol:ResourceOFTComposerMock",
            "label": "resourceToken",
            "offset": 0,
            "slot": "2",
            "type": "t_address"
          },
          {
            "astId": 6054,
            "contract": "contracts/mocks/ResourceOFTComposerMock.sol:ResourceOFTComposerMock",
            "label": "amount",
            "offset": 0,
            "slot": "3",
            "type": "t_uint256"
          },
          {
            "astId": 6056,
            "contract": "contracts/mocks/ResourceOFTComposerMock.sol:ResourceOFTComposerMock",
            "label": "pricePerToken",
            "offset": 0,
            "slot": "4",
            "type": "t_uint256"
          },
          {
            "astId": 6058,
            "contract": "contracts/mocks/ResourceOFTComposerMock.sol:ResourceOFTComposerMock",
            "label": "active",
            "offset": 0,
            "slot": "5",
            "type": "t_bool"
          }
        ],
        "numberOfBytes": "192"
      },
      "t_uint16": {
        "encoding": "inplace",
        "label": "uint16",
        "numberOfBytes": "2"
      },
      "t_uint256": {
        "encoding": "inplace",
        "label": "uint256",
        "numberOfBytes": "32"
      },
      "t_uint32": {
        "encoding": "inplace",
        "label": "uint32",
        "numberOfBytes": "4"
      }
    }
  }
}