{
  "address": "0x42f04F060B6854E33F9C0f674dDF035a0Ea8bB9C",
  "abi": [
    {
      "inputs": [
        {
          "internalType": "address",
          "name": "_endpoint",
          "type": "address"
        },
        {
          "internalType": "address",
          "name": "_owner",
          "type": "address"
        }
      ],
      "stateMutability": "nonpayable",
      "type": "constructor"
    },
    {
      "inputs": [],
      "name": "InvalidDelegate",
      "type": "error"
    },
    {
      "inputs": [],
      "name": "InvalidEndpointCall",
      "type": "error"
    },
    {
      "inputs": [
        {
          "internalType": "bytes",
          "name": "options",
          "type": "bytes"
        }
      ],
      "name": "InvalidOptions",
      "type": "error"
    },
    {
      "inputs": [],
      "name": "LzTokenUnavailable",
      "type": "error"
    },
    {
      "inputs": [
        {
          "internalType": "uint32",
          "name": "eid",
          "type": "uint32"
        }
      ],
      "name": "NoPeer",
      "type": "error"
    },
    {
      "inputs": [
        {
          "internalType": "uint256",
          "name": "msgValue",
          "type": "uint256"
        }
      ],
      "name": "NotEnoughNative",
      "type": "error"
    },
    {
      "inputs": [
        {
          "internalType": "address",
          "name": "addr",
          "type": "address"
        }
      ],
      "name": "OnlyEndpoint",
      "type": "error"
    },
    {
      "inputs": [
        {
          "internalType": "uint32",
          "name": "eid",
          "type": "uint32"
        },
        {
          "internalType": "bytes32",
          "name": "sender",
          "type": "bytes32"
        }
      ],
      "name": "OnlyPeer",
      "type": "error"
    },
    {
      "inputs": [
        {
          "internalType": "address",
          "name": "owner",
          "type": "address"
        }
      ],
      "name": "OwnableInvalidOwner",
      "type": "error"
    },
    {
      "inputs": [
        {
          "internalType": "address",
          "name": "account",
          "type": "address"
        }
      ],
      "name": "OwnableUnauthorizedAccount",
      "type": "error"
    },
    {
      "inputs": [
        {
          "internalType": "address",
          "name": "token",
          "type": "address"
        }
      ],
      "name": "SafeERC20FailedOperation",
      "type": "error"
    },
    {
      "anonymous": false,
      "inputs": [
        {
          "indexed": true,
          "internalType": "uint256",
          "name": "tokenId",
          "type": "uint256"
        },
        {
          "indexed": false,
          "internalType": "uint32",
          "name": "totalLosses",
          "type": "uint32"
        }
      ],
      "name": "BattleLost",
      "type": "event"
    },
    {
      "anonymous": false,
      "inputs": [
        {
          "indexed": true,
          "internalType": "uint256",
          "name": "tokenId",
          "type": "uint256"
        },
        {
          "indexed": false,
          "internalType": "bool",
          "name": "won",
          "type": "bool"
        },
        {
          "indexed": false,
          "internalType": "uint32",
          "name": "srcEid",
          "type": "uint32"
        }
      ],
      "name": "BattleResultReceived",
      "type": "event"
    },
    {
      "anonymous": false,
      "inputs": [
        {
          "components": [
            {
              "internalType": "uint32",
              "name": "eid",
              "type": "uint32"
            },
            {
              "internalType": "uint16",
              "name": "msgType",
              "type": "uint16"
            },
            {
              "internalType": "bytes",
              "name": "options",
              "type": "bytes"
            }
          ],
          "indexed": false,
          "internalType": "struct EnforcedOptionParam[]",
          "name": "_enforcedOptions",
          "type": "tuple[]"
        }
      ],
      "name": "EnforcedOptionSet",
      "type": "event"
    },
    {
      "anonymous": false,
      "inputs": [
        {
          "indexed": true,
          "internalType": "uint256",
          "name": "tokenId",
          "type": "uint256"
        },
        {
          "indexed": false,
          "internalType": "uint32",
          "name": "totalKills",
          "type": "uint32"
        }
      ],
      "name": "GoblinKilled",
      "type": "event"
    },
    {
      "anonymous": false,
      "inputs": [
        {
          "indexed": true,
          "internalType": "address",
          "name": "previousOwner",
          "type": "address"
        },
        {
          "indexed": true,
          "internalType": "address",
          "name": "newOwner",
          "type": "address"
        }
      ],
      "name": "OwnershipTransferred",
      "type": "event"
    },
    {
      "anonymous": false,
      "inputs": [
        {
          "indexed": false,
          "internalType": "uint32",
          "name": "eid",
          "type": "uint32"
        },
        {
          "indexed": false,
          "internalType": "bytes32",
          "name": "peer",
          "type": "bytes32"
        }
      ],
      "name": "PeerSet",
      "type": "event"
    },
    {
      "anonymous": false,
      "inputs": [
        {
          "indexed": false,
          "internalType": "uint256",
          "name": "winAmount",
          "type": "uint256"
        },
        {
          "indexed": false,
          "internalType": "uint256",
          "name": "lossAmount",
          "type": "uint256"
        }
      ],
      "name": "RewardAmountsSet",
      "type": "event"
    },
    {
      "anonymous": false,
      "inputs": [
        {
          "indexed": true,
          "internalType": "uint256",
          "name": "tokenId",
          "type": "uint256"
        },
        {
          "indexed": true,
          "internalType": "address",
          "name": "recipient",
          "type": "address"
        },
        {
          "indexed": false,
          "internalType": "uint256",
          "name": "amount",
          "type": "uint256"
        }
      ],
      "name": "RewardMinted",
      "type": "event"
    },
    {
      "anonymous": false,
      "inputs": [
        {
          "indexed": true,
          "internalType": "uint256",
          "name": "tokenId",
          "type": "uint256"
        },
        {
          "indexed": true,
          "internalType": "address",
          "name": "recipient",
          "type": "address"
        },
        {
          "indexed": false,
          "internalType": "uint256",
          "name": "amount",
          "type": "uint256"
        },
        {
          "indexed": false,
          "internalType": "uint32",
          "name": "dstEid",
          "type": "uint32"
        },
        {
          "indexed": false,
          "internalType": "string",
          "name": "reason",
          "type": "string"
        }
      ],
      "name": "RewardSendFailed",
      "type": "event"
    },
    {
      "anonymous": false,
      "inputs": [
        {
          "indexed": true,
          "internalType": "uint256",
          "name": "tokenId",
          "type": "uint256"
        },
        {
          "indexed": true,
          "internalType": "address",
          "name": "recipient",
          "type": "address"
        },
        {
          "indexed": false,
          "internalType": "uint256",
          "name": "amount",
          "type": "uint256"
        },
        {
          "indexed": false,
          "internalType": "uint32",
          "name": "dstEid",
          "type": "uint32"
        }
      ],
      "name": "RewardSent",
      "type": "event"
    },
    {
      "anonymous": false,
      "inputs": [
        {
          "indexed": true,
          "internalType": "address",
          "name": "token",
          "type": "address"
        }
      ],
      "name": "RewardTokenSet",
      "type": "event"
    },
    {
      "inputs": [],
      "name": "SEND",
      "outputs": [
        {
          "internalType": "uint16",
          "name": "",
          "type": "uint16"
        }
      ],
      "stateMutability": "view",
      "type": "function"
    },
    {
      "inputs": [
        {
          "components": [
            {
              "internalType": "uint32",
              "name": "srcEid",
              "type": "uint32"
            },
            {
              "internalType": "bytes32",
              "name": "sender",
              "type": "bytes32"
            },
            {
              "internalType": "uint64",
              "name": "nonce",
              "type": "uint64"
            }
          ],
          "internalType": "struct Origin",
          "name": "origin",
          "type": "tuple"
        }
      ],
      "name": "allowInitializePath",
      "outputs": [
        {
          "internalType": "bool",
          "name": "",
          "type": "bool"
        }
      ],
      "stateMutability": "view",
      "type": "function"
    },
    {
      "inputs": [
        {
          "internalType": "uint32",
          "name": "_eid",
          "type": "uint32"
        },
        {
          "internalType": "uint16",
          "name": "_msgType",
          "type": "uint16"
        },
        {
          "internalType": "bytes",
          "name": "_extraOptions",
          "type": "bytes"
        }
      ],
      "name": "combineOptions",
      "outputs": [
        {
          "internalType": "bytes",
          "name": "",
          "type": "bytes"
        }
      ],
      "stateMutability": "view",
      "type": "function"
    },
    {
      "inputs": [],
      "name": "endpoint",
      "outputs": [
        {
          "internalType": "contract ILayerZeroEndpointV2",
          "name": "",
          "type": "address"
        }
      ],
      "stateMutability": "view",
      "type": "function"
    },
    {
      "inputs": [
        {
          "internalType": "uint32",
          "name": "eid",
          "type": "uint32"
        },
        {
          "internalType": "uint16",
          "name": "msgType",
          "type": "uint16"
        }
      ],
      "name": "enforcedOptions",
      "outputs": [
        {
          "internalType": "bytes",
          "name": "enforcedOption",
          "type": "bytes"
        }
      ],
      "stateMutability": "view",
      "type": "function"
    },
    {
      "inputs": [
        {
          "internalType": "uint256[]",
          "name": "_tokenIds",
          "type": "uint256[]"
        }
      ],
      "name": "getLeaderboard",
      "outputs": [
        {
          "internalType": "uint32[]",
          "name": "kills",
          "type": "uint32[]"
        }
      ],
      "stateMutability": "view",
      "type": "function"
    },
    {
      "inputs": [],
      "name": "getNativeBalance",
      "outputs": [
        {
          "internalType": "uint256",
          "name": "balance",
          "type": "uint256"
        }
      ],
      "stateMutability": "view",
      "type": "function"
    },
    {
      "inputs": [
        {
          "internalType": "uint256",
          "name": "_tokenId",
          "type": "uint256"
        }
      ],
      "name": "getPlayerStats",
      "outputs": [
        {
          "internalType": "uint32",
          "name": "totalBattles",
          "type": "uint32"
        },
        {
          "internalType": "uint32",
          "name": "goblinsKilled",
          "type": "uint32"
        },
        {
          "internalType": "uint32",
          "name": "battlesLost",
          "type": "uint32"
        }
      ],
      "stateMutability": "view",
      "type": "function"
    },
    {
      "inputs": [
        {
          "components": [
            {
              "internalType": "uint32",
              "name": "srcEid",
              "type": "uint32"
            },
            {
              "internalType": "bytes32",
              "name": "sender",
              "type": "bytes32"
            },
            {
              "internalType": "uint64",
              "name": "nonce",
              "type": "uint64"
            }
          ],
          "internalType": "struct Origin",
          "name": "",
          "type": "tuple"
        },
        {
          "internalType": "bytes",
          "name": "",
          "type": "bytes"
        },
        {
          "internalType": "address",
          "name": "_sender",
          "type": "address"
        }
      ],
      "name": "isComposeMsgSender",
      "outputs": [
        {
          "internalType": "bool",
          "name": "",
          "type": "bool"
        }
      ],
      "stateMutability": "view",
      "type": "function"
    },
    {
      "inputs": [
        {
          "components": [
            {
              "internalType": "uint32",
              "name": "srcEid",
              "type": "uint32"
            },
            {
              "internalType": "bytes32",
              "name": "sender",
              "type": "bytes32"
            },
            {
              "internalType": "uint64",
              "name": "nonce",
              "type": "uint64"
            }
          ],
          "internalType": "struct Origin",
          "name": "_origin",
          "type": "tuple"
        },
        {
          "internalType": "bytes32",
          "name": "_guid",
          "type": "bytes32"
        },
        {
          "internalType": "bytes",
          "name": "_message",
          "type": "bytes"
        },
        {
          "internalType": "address",
          "name": "_executor",
          "type": "address"
        },
        {
          "internalType": "bytes",
          "name": "_extraData",
          "type": "bytes"
        }
      ],
      "name": "lzReceive",
      "outputs": [],
      "stateMutability": "payable",
      "type": "function"
    },
    {
      "inputs": [
        {
          "internalType": "uint32",
          "name": "",
          "type": "uint32"
        },
        {
          "internalType": "bytes32",
          "name": "",
          "type": "bytes32"
        }
      ],
      "name": "nextNonce",
      "outputs": [
        {
          "internalType": "uint64",
          "name": "nonce",
          "type": "uint64"
        }
      ],
      "stateMutability": "view",
      "type": "function"
    },
    {
      "inputs": [],
      "name": "oAppVersion",
      "outputs": [
        {
          "internalType": "uint64",
          "name": "senderVersion",
          "type": "uint64"
        },
        {
          "internalType": "uint64",
          "name": "receiverVersion",
          "type": "uint64"
        }
      ],
      "stateMutability": "pure",
      "type": "function"
    },
    {
      "inputs": [],
      "name": "owner",
      "outputs": [
        {
          "internalType": "address",
          "name": "",
          "type": "address"
        }
      ],
      "stateMutability": "view",
      "type": "function"
    },
    {
      "inputs": [
        {
          "internalType": "uint32",
          "name": "eid",
          "type": "uint32"
        }
      ],
      "name": "peers",
      "outputs": [
        {
          "internalType": "bytes32",
          "name": "peer",
          "type": "bytes32"
        }
      ],
      "stateMutability": "view",
      "type": "function"
    },
    {
      "inputs": [
        {
          "internalType": "uint256",
          "name": "",
          "type": "uint256"
        }
      ],
      "name": "playerStats",
      "outputs": [
        {
          "internalType": "uint32",
          "name": "totalBattles",
          "type": "uint32"
        },
        {
          "internalType": "uint32",
          "name": "goblinsKilled",
          "type": "uint32"
        },
        {
          "internalType": "uint32",
          "name": "battlesLost",
          "type": "uint32"
        }
      ],
      "stateMutability": "view",
      "type": "function"
    },
    {
      "inputs": [
        {
          "internalType": "uint32",
          "name": "_dstEid",
          "type": "uint32"
        },
        {
          "internalType": "string",
          "name": "_string",
          "type": "string"
        },
        {
          "internalType": "bytes",
          "name": "_options",
          "type": "bytes"
        },
        {
          "internalType": "bool",
          "name": "_payInLzToken",
          "type": "bool"
        }
      ],
      "name": "quoteSendString",
      "outputs": [
        {
          "components": [
            {
              "internalType": "uint256",
              "name": "nativeFee",
              "type": "uint256"
            },
            {
              "internalType": "uint256",
              "name": "lzTokenFee",
              "type": "uint256"
            }
          ],
          "internalType": "struct MessagingFee",
          "name": "fee",
          "type": "tuple"
        }
      ],
      "stateMutability": "view",
      "type": "function"
    },
    {
      "inputs": [],
      "name": "renounceOwnership",
      "outputs": [],
      "stateMutability": "nonpayable",
      "type": "function"
    },
    {
      "inputs": [
        {
          "internalType": "uint256",
          "name": "_tokenId",
          "type": "uint256"
        }
      ],
      "name": "resetPlayerStats",
      "outputs": [],
      "stateMutability": "nonpayable",
      "type": "function"
    },
    {
      "inputs": [],
      "name": "rewardForLoss",
      "outputs": [
        {
          "internalType": "uint256",
          "name": "",
          "type": "uint256"
        }
      ],
      "stateMutability": "view",
      "type": "function"
    },
    {
      "inputs": [],
      "name": "rewardForWin",
      "outputs": [
        {
          "internalType": "uint256",
          "name": "",
          "type": "uint256"
        }
      ],
      "stateMutability": "view",
      "type": "function"
    },
    {
      "inputs": [],
      "name": "rewardToken",
      "outputs": [
        {
          "internalType": "address",
          "name": "",
          "type": "address"
        }
      ],
      "stateMutability": "view",
      "type": "function"
    },
    {
      "inputs": [
        {
          "internalType": "uint32",
          "name": "_dstEid",
          "type": "uint32"
        },
        {
          "internalType": "string",
          "name": "_string",
          "type": "string"
        },
        {
          "internalType": "bytes",
          "name": "_options",
          "type": "bytes"
        }
      ],
      "name": "sendString",
      "outputs": [],
      "stateMutability": "payable",
      "type": "function"
    },
    {
      "inputs": [
        {
          "internalType": "address",
          "name": "_delegate",
          "type": "address"
        }
      ],
      "name": "setDelegate",
      "outputs": [],
      "stateMutability": "nonpayable",
      "type": "function"
    },
    {
      "inputs": [
        {
          "components": [
            {
              "internalType": "uint32",
              "name": "eid",
              "type": "uint32"
            },
            {
              "internalType": "uint16",
              "name": "msgType",
              "type": "uint16"
            },
            {
              "internalType": "bytes",
              "name": "options",
              "type": "bytes"
            }
          ],
          "internalType": "struct EnforcedOptionParam[]",
          "name": "_enforcedOptions",
          "type": "tuple[]"
        }
      ],
      "name": "setEnforcedOptions",
      "outputs": [],
      "stateMutability": "nonpayable",
      "type": "function"
    },
    {
      "inputs": [
        {
          "internalType": "uint32",
          "name": "_eid",
          "type": "uint32"
        },
        {
          "internalType": "bytes32",
          "name": "_peer",
          "type": "bytes32"
        }
      ],
      "name": "setPeer",
      "outputs": [],
      "stateMutability": "nonpayable",
      "type": "function"
    },
    {
      "inputs": [
        {
          "internalType": "uint256",
          "name": "_winAmount",
          "type": "uint256"
        },
        {
          "internalType": "uint256",
          "name": "_lossAmount",
          "type": "uint256"
        }
      ],
      "name": "setRewardAmounts",
      "outputs": [],
      "stateMutability": "nonpayable",
      "type": "function"
    },
    {
      "inputs": [
        {
          "internalType": "address",
          "name": "_token",
          "type": "address"
        }
      ],
      "name": "setRewardToken",
      "outputs": [],
      "stateMutability": "nonpayable",
      "type": "function"
    },
    {
      "inputs": [],
      "name": "totalGoblinsKilled",
      "outputs": [
        {
          "internalType": "uint256",
          "name": "",
          "type": "uint256"
        }
      ],
      "stateMutability": "view",
      "type": "function"
    },
    {
      "inputs": [
        {
          "internalType": "address",
          "name": "newOwner",
          "type": "address"
        }
      ],
      "name": "transferOwnership",
      "outputs": [],
      "stateMutability": "nonpayable",
      "type": "function"
    },
    {
      "inputs": [
        {
          "internalType": "address payable",
          "name": "_to",
          "type": "address"
        },
        {
          "internalType": "uint256",
          "name": "_amount",
          "type": "uint256"
        }
      ],
      "name": "withdrawNative",
      "outputs": [],
      "stateMutability": "nonpayable",
      "type": "function"
    },
    {
      "stateMutability": "payable",
      "type": "receive"
    }
  ],
  "transactionHash": "0x45ac7b225bf8a71fd8a80d7c2cd8c5b7ce901aa6b057c19fa6030d817bd3ed5e",
  "args": [
    "0x6EDCE65403992e310A62460808c4b910D972f10f",
    "0xb16b457D4324Bc4CF2f62c8ca5F4FaFC35c5242A"
  ],
  "numDeployments": 1,
  "solcInputHash": "b87af9775a5b0e96dd1f0e8f87be0143",
  "bytecode": "0x60a0604052674563918244f40000600655671bc16d674ec800006007553480156200002957600080fd5b50604051620028c6380380620028c68339810160408190526200004c9162000194565b81818181806001600160a01b0381166200008057604051631e4fbdf760e01b81526000600482015260240160405180910390fd5b6200008b8162000127565b506001600160a01b038083166080528116620000ba57604051632d618d8160e21b815260040160405180910390fd5b60805160405163ca5eb5e160e01b81526001600160a01b0383811660048301529091169063ca5eb5e190602401600060405180830381600087803b1580156200010257600080fd5b505af115801562000117573d6000803e3d6000fd5b50505050505050505050620001cc565b600080546001600160a01b038381166001600160a01b0319831681178455604051919092169283917f8be0079c531659141344cd1fd0a4f28419497f9722a3daafe3b4186f6b6457e09190a35050565b80516001600160a01b03811681146200018f57600080fd5b919050565b60008060408385031215620001a857600080fd5b620001b38362000177565b9150620001c36020840162000177565b90509250929050565b6080516126b462000212600039600081816102d3015281816107d201528181610ccd015281816111d801528181611454015281816117b2015261186901526126b46000f3fe6080604052600436106101d15760003560e01c8063b776fc73116100f7578063d113ef7c11610095578063f03f1c1011610064578063f03f1c1014610616578063f2fde38b1461062c578063f7c618c11461064c578063ff7bd03d1461066c57600080fd5b8063d113ef7c14610540578063d3b4866e14610560578063d4e16e241461058d578063e423308f146105ad57600080fd5b8063bc0a8c44116100d1578063bc0a8c44146104bd578063bc70b354146104ea578063c274c0961461050a578063ca5eb5e11461052057600080fd5b8063b776fc73146103ff578063b98bd07014610470578063bb0b6a531461049057600080fd5b80635e280f111161016f57806387f3fee21161013e57806387f3fee21461038a57806388a9d554146103ae5780638aee8127146103c15780638da5cb5b146103e157600080fd5b80635e280f11146102c1578063715018a61461030d5780637d25a05e1461032257806382413eac1461035a57600080fd5b80631f5e1334116101ab5780631f5e1334146102395780633400288b1461026157806336ef9620146102815780635535d4611461029457600080fd5b806307b18bde146101dd57806313137d65146101ff57806317442b701461021257600080fd5b366101d857005b600080fd5b3480156101e957600080fd5b506101fd6101f83660046119b3565b61068c565b005b6101fd61020d366004611a3f565b6107d0565b34801561021e57600080fd5b50604080516001815260026020820152015b60405180910390f35b34801561024557600080fd5b5061024e600181565b60405161ffff9091168152602001610230565b34801561026d57600080fd5b506101fd61027c366004611af7565b61088b565b6101fd61028f366004611b13565b6108a1565b3480156102a057600080fd5b506102b46102af366004611ba5565b6108f5565b6040516102309190611c28565b3480156102cd57600080fd5b506102f57f000000000000000000000000000000000000000000000000000000000000000081565b6040516001600160a01b039091168152602001610230565b34801561031957600080fd5b506101fd61099a565b34801561032e57600080fd5b5061034261033d366004611af7565b6109ae565b6040516001600160401b039091168152602001610230565b34801561036657600080fd5b5061037a610375366004611c42565b6109b7565b6040519015158152602001610230565b34801561039657600080fd5b506103a060075481565b604051908152602001610230565b3480156103ba57600080fd5b50476103a0565b3480156103cd57600080fd5b506101fd6103dc366004611ca8565b6109cc565b3480156103ed57600080fd5b506000546001600160a01b03166102f5565b34801561040b57600080fd5b5061044961041a366004611cc5565b60036020526000908152604090205463ffffffff808216916401000000008104821691600160401b9091041683565b6040805163ffffffff94851681529284166020840152921691810191909152606001610230565b34801561047c57600080fd5b506101fd61048b366004611d22565b610a1e565b34801561049c57600080fd5b506103a06104ab366004611d63565b60016020526000908152604090205481565b3480156104c957600080fd5b506104dd6104d8366004611d22565b610a38565b6040516102309190611d7e565b3480156104f657600080fd5b506102b4610505366004611dc8565b610afe565b34801561051657600080fd5b506103a060065481565b34801561052c57600080fd5b506101fd61053b366004611ca8565b610ca6565b34801561054c57600080fd5b506101fd61055b366004611e28565b610d2c565b34801561056c57600080fd5b5061058061057b366004611e5a565b610d7c565b6040516102309190611ee9565b34801561059957600080fd5b506101fd6105a8366004611cc5565b610dda565b3480156105b957600080fd5b506104496105c8366004611cc5565b6000818152600360209081526040918290208251606081018452905463ffffffff80821680845264010000000083048216948401859052600160401b90920416919093018190529193909250565b34801561062257600080fd5b506103a060045481565b34801561063857600080fd5b506101fd610647366004611ca8565b610e53565b34801561065857600080fd5b506005546102f5906001600160a01b031681565b34801561067857600080fd5b5061037a610687366004611f00565b610e91565b610694610ec7565b6001600160a01b0382166106ef5760405162461bcd60e51b815260206004820152601f60248201527f43616e6e6f7420776974686472617720746f207a65726f20616464726573730060448201526064015b60405180910390fd5b478111156107365760405162461bcd60e51b8152602060048201526014602482015273496e73756666696369656e742062616c616e636560601b60448201526064016106e6565b6000826001600160a01b03168260405160006040518083038185875af1925050503d8060008114610783576040519150601f19603f3d011682016040523d82523d6000602084013e610788565b606091505b50509050806107cb5760405162461bcd60e51b815260206004820152600f60248201526e151c985b9cd9995c8819985a5b1959608a1b60448201526064016106e6565b505050565b7f00000000000000000000000000000000000000000000000000000000000000006001600160a01b0316331461081b576040516391ac5e4f60e01b81523360048201526024016106e6565b6020870180359061083590610830908a611d63565b610ef4565b14610873576108476020880188611d63565b60405163309afaf360e21b815263ffffffff9091166004820152602088013560248201526044016106e6565b61088287878787878787610f30565b50505050505050565b610893610ec7565b61089d8282611157565b5050565b600084846040516020016108b6929190611f45565b604051602081830303815290604052905061088286826108d98960018888610afe565b60405180604001604052803481526020016000815250336111a5565b60026020908152600092835260408084209091529082529020805461091990611f59565b80601f016020809104026020016040519081016040528092919081815260200182805461094590611f59565b80156109925780601f1061096757610100808354040283529160200191610992565b820191906000526020600020905b81548152906001019060200180831161097557829003601f168201915b505050505081565b6109a2610ec7565b6109ac60006112b0565b565b60005b92915050565b6001600160a01b03811630145b949350505050565b6109d4610ec7565b600580546001600160a01b0319166001600160a01b0383169081179091556040517f2d6b04df9b7d358407d1a014f1114b064add34c19d63d395db155a7e533e967a90600090a250565b610a26610ec7565b61089d610a338284611ffb565b611300565b6060816001600160401b03811115610a5257610a52611f8d565b604051908082528060200260200182016040528015610a7b578160200160208202803683370190505b50905060005b82811015610af75760036000858584818110610a9f57610a9f612120565b90506020020135815260200190815260200160002060000160049054906101000a900463ffffffff16828281518110610ada57610ada612120565b63ffffffff90921660209283029190910190910152600101610a81565b5092915050565b63ffffffff8416600090815260026020908152604080832061ffff87168452909152812080546060929190610b3290611f59565b80601f0160208091040260200160405190810160405280929190818152602001828054610b5e90611f59565b8015610bab5780601f10610b8057610100808354040283529160200191610bab565b820191906000526020600020905b815481529060010190602001808311610b8e57829003601f168201915b505050505090508051600003610bfb5783838080601f0160208091040260200160405190810160405280939291908181526020018383808284376000920191909152509294506109c49350505050565b6000839003610c0b5790506109c4565b60028310610c8957610c5284848080601f01602080910402602001604051908101604052809392919081815260200183838082843760009201919091525061141292505050565b80610c608460028188612136565b604051602001610c7293929190612160565b6040516020818303038152906040529150506109c4565b8383604051639a6d49cd60e01b81526004016106e6929190611f45565b610cae610ec7565b60405163ca5eb5e160e01b81526001600160a01b0382811660048301527f0000000000000000000000000000000000000000000000000000000000000000169063ca5eb5e190602401600060405180830381600087803b158015610d1157600080fd5b505af1158015610d25573d6000803e3d6000fd5b5050505050565b610d34610ec7565b6006829055600781905560408051838152602081018390527fd80b600f90da7e765c97ab9791c4f41a66e00e4ac7cd5eccb048e8afbc8cd8fb91015b60405180910390a15050565b604080518082019091526000808252602082015260008686604051602001610da5929190611f45565b6040516020818303038152906040529050610dce8882610dc88b60018a8a610afe565b8661143e565b98975050505050505050565b610de2610ec7565b60008181526003602052604090208054640100000000900463ffffffff1615610e2f5780546004805464010000000090920463ffffffff1691600090610e2990849061219e565b90915550505b50600090815260036020526040902080546bffffffffffffffffffffffff19169055565b610e5b610ec7565b6001600160a01b038116610e8557604051631e4fbdf760e01b8152600060048201526024016106e6565b610e8e816112b0565b50565b6000602082018035906001908390610ea99086611d63565b63ffffffff1681526020810191909152604001600020541492915050565b6000546001600160a01b031633146109ac5760405163118cdaa760e01b81523360048201526024016106e6565b63ffffffff8116600090815260016020526040812054806109b15760405163f6ff4fb760e01b815263ffffffff841660048201526024016106e6565b60008080610f40878901896121b1565b60008381526003602052604081208054949750929550909350909163ffffffff16908290610f6d836121f1565b91906101000a81548163ffffffff021916908363ffffffff1602179055505060008315611037578154640100000000900463ffffffff16826004610fb0836121f1565b91906101000a81548163ffffffff021916908363ffffffff1602179055505060046000815480929190610fe290612214565b9091555050600654825460405164010000000090910463ffffffff16815290915085907f21aa4b5b7b16a7411df3bbbd91e8c7236820f0cc6d5140ddb787cf34133fbfd59060200160405180910390a26110b7565b8154600160401b900463ffffffff16826008611052836121f1565b82546101009290920a63ffffffff8181021990931691831602179091556007548454604051600160401b909104909216825292508691507f7698de19a2a0fa163650a2aa1bf3fb57a327c6e121e03544cdb75303bcb4c3219060200160405180910390a25b847fc043b3cad7fff824b5c7833b5735310d0604aecb33c7f37fa2696fcc17e00d6d858e60000160208101906110ed9190611d63565b60408051921515835263ffffffff90911660208301520160405180910390a26005546001600160a01b0316158015906111265750600081115b156111495761114983828e60000160208101906111439190611d63565b8861151f565b505050505050505050505050565b63ffffffff8216600081815260016020908152604091829020849055815192835282018390527f238399d427b947898edb290f5ff0f9109849b1c3ba196a42e35f00c50a54b98b9101610d70565b6111ad611957565b60006111bc8460000151611786565b6020850151909150156111d6576111d684602001516117ae565b7f00000000000000000000000000000000000000000000000000000000000000006001600160a01b0316632637a450826040518060a001604052808b63ffffffff1681526020016112268c610ef4565b81526020018a815260200189815260200160008960200151111515815250866040518463ffffffff1660e01b815260040161126292919061222d565b60806040518083038185885af1158015611280573d6000803e3d6000fd5b50505050506040513d601f19601f820116820180604052508101906112a5919061234b565b979650505050505050565b600080546001600160a01b038381166001600160a01b0319831681178455604051919092169283917f8be0079c531659141344cd1fd0a4f28419497f9722a3daafe3b4186f6b6457e09190a35050565b60005b81518110156113d75761133282828151811061132157611321612120565b602002602001015160400151611412565b81818151811061134457611344612120565b6020026020010151604001516002600084848151811061136657611366612120565b60200260200101516000015163ffffffff1663ffffffff16815260200190815260200160002060008484815181106113a0576113a0612120565b60200260200101516020015161ffff1661ffff16815260200190815260200160002090816113ce91906123b7565b50600101611303565b507fbe4864a8e820971c0247f5992e2da559595f7bf076a21cb5928d443d2a13b674816040516114079190612476565b60405180910390a150565b600281015161ffff811660031461089d5781604051639a6d49cd60e01b81526004016106e69190611c28565b60408051808201909152600080825260208201527f00000000000000000000000000000000000000000000000000000000000000006001600160a01b031663ddc28c586040518060a001604052808863ffffffff1681526020016114a189610ef4565b8152602001878152602001868152602001851515815250306040518363ffffffff1660e01b81526004016114d692919061222d565b6040805180830381865afa1580156114f2573d6000803e3d6000fd5b505050506040513d601f19601f820116820180604052508101906115169190612501565b95945050505050565b6005546040516340c10f1960e01b8152306004820152602481018590526001600160a01b039091169081906340c10f1990604401600060405180830381600087803b15801561156d57600080fd5b505af1158015611581573d6000803e3d6000fd5b50506040518681523092508491507fe76a187449690f0071359da58a84f8930b26908aae428c6dad96c632d97e93499060200160405180910390a36040805160e08101825263ffffffff851681526001600160a01b03871660208201529081018590526000906060810160646115f888605f61251d565b6116029190612534565b81526020016040518060200160405280600081525081526020016040518060200160405280600081525081526020016040518060200160405280600081525081525090506000826001600160a01b0316633b6f743b8360006040518363ffffffff1660e01b81526004016116779291906125cc565b6040805180830381865afa158015611693573d6000803e3d6000fd5b505050506040513d601f19601f820116820180604052508101906116b79190612501565b805160405163c7c7f5b360e01b81529192506001600160a01b0385169163c7c7f5b391906116ed908690869030906004016125f0565b60c06040518083038185885af115801561170b573d6000803e3d6000fd5b50505050506040513d601f19601f820116820180604052508101906117309190612635565b50506040805187815263ffffffff871660208201526001600160a01b0389169186917f3a483d26297933f9a123c7a6477103bcb7514122131d1ee625532fa2462c0f43910160405180910390a350505050505050565b60008134146117aa576040516304fb820960e51b81523460048201526024016106e6565b5090565b60007f00000000000000000000000000000000000000000000000000000000000000006001600160a01b031663e4fe1d946040518163ffffffff1660e01b8152600401602060405180830381865afa15801561180e573d6000803e3d6000fd5b505050506040513d601f19601f820116820180604052508101906118329190612661565b90506001600160a01b03811661185b576040516329b99a9560e11b815260040160405180910390fd5b6040805133602482018190527f00000000000000000000000000000000000000000000000000000000000000006001600160a01b03818116604485015260648085018890528551808603909101815260849094019094526020830180516001600160e01b03166323b872dd60e01b17905261089d9385169286906118e09085906118e6565b50505050565b600080602060008451602086016000885af180611909576040513d6000823e3d81fd5b50506000513d9150811561192157806001141561192e565b6001600160a01b0384163b155b156118e057604051635274afe760e01b81526001600160a01b03851660048201526024016106e6565b60405180606001604052806000801916815260200160006001600160401b03168152602001611999604051806040016040528060008152602001600081525090565b905290565b6001600160a01b0381168114610e8e57600080fd5b600080604083850312156119c657600080fd5b82356119d18161199e565b946020939093013593505050565b6000606082840312156119f157600080fd5b50919050565b60008083601f840112611a0957600080fd5b5081356001600160401b03811115611a2057600080fd5b602083019150836020828501011115611a3857600080fd5b9250929050565b600080600080600080600060e0888a031215611a5a57600080fd5b611a6489896119df565b96506060880135955060808801356001600160401b0380821115611a8757600080fd5b611a938b838c016119f7565b909750955060a08a01359150611aa88261199e565b90935060c08901359080821115611abe57600080fd5b50611acb8a828b016119f7565b989b979a50959850939692959293505050565b803563ffffffff81168114611af257600080fd5b919050565b60008060408385031215611b0a57600080fd5b6119d183611ade565b600080600080600060608688031215611b2b57600080fd5b611b3486611ade565b945060208601356001600160401b0380821115611b5057600080fd5b611b5c89838a016119f7565b90965094506040880135915080821115611b7557600080fd5b50611b82888289016119f7565b969995985093965092949392505050565b803561ffff81168114611af257600080fd5b60008060408385031215611bb857600080fd5b611bc183611ade565b9150611bcf60208401611b93565b90509250929050565b60005b83811015611bf3578181015183820152602001611bdb565b50506000910152565b60008151808452611c14816020860160208601611bd8565b601f01601f19169290920160200192915050565b602081526000611c3b6020830184611bfc565b9392505050565b60008060008060a08587031215611c5857600080fd5b611c6286866119df565b935060608501356001600160401b03811115611c7d57600080fd5b611c89878288016119f7565b9094509250506080850135611c9d8161199e565b939692955090935050565b600060208284031215611cba57600080fd5b8135611c3b8161199e565b600060208284031215611cd757600080fd5b5035919050565b60008083601f840112611cf057600080fd5b5081356001600160401b03811115611d0757600080fd5b6020830191508360208260051b8501011115611a3857600080fd5b60008060208385031215611d3557600080fd5b82356001600160401b03811115611d4b57600080fd5b611d5785828601611cde565b90969095509350505050565b600060208284031215611d7557600080fd5b611c3b82611ade565b6020808252825182820181905260009190848201906040850190845b81811015611dbc57835163ffffffff1683529284019291840191600101611d9a565b50909695505050505050565b60008060008060608587031215611dde57600080fd5b611de785611ade565b9350611df560208601611b93565b925060408501356001600160401b03811115611e1057600080fd5b611e1c878288016119f7565b95989497509550505050565b60008060408385031215611e3b57600080fd5b50508035926020909101359150565b80358015158114611af257600080fd5b60008060008060008060808789031215611e7357600080fd5b611e7c87611ade565b955060208701356001600160401b0380821115611e9857600080fd5b611ea48a838b016119f7565b90975095506040890135915080821115611ebd57600080fd5b50611eca89828a016119f7565b9094509250611edd905060608801611e4a565b90509295509295509295565b8151815260208083015190820152604081016109b1565b600060608284031215611f1257600080fd5b611c3b83836119df565b81835281816020850137506000828201602090810191909152601f909101601f19169091010190565b6020815260006109c4602083018486611f1c565b600181811c90821680611f6d57607f821691505b6020821081036119f157634e487b7160e01b600052602260045260246000fd5b634e487b7160e01b600052604160045260246000fd5b604051606081016001600160401b0381118282101715611fc557611fc5611f8d565b60405290565b604051601f8201601f191681016001600160401b0381118282101715611ff357611ff3611f8d565b604052919050565b60006001600160401b038084111561201557612015611f8d565b8360051b6020612026818301611fcb565b86815291850191818101903684111561203e57600080fd5b865b84811015612114578035868111156120585760008081fd5b8801606036829003121561206c5760008081fd5b612074611fa3565b61207d82611ade565b815261208a868301611b93565b86820152604080830135898111156120a25760008081fd5b9290920191601f36818501126120b85760008081fd5b83358a8111156120ca576120ca611f8d565b6120db818301601f19168a01611fcb565b915080825236898287010111156120f25760008081fd5b808986018a840137600090820189015290820152845250918301918301612040565b50979650505050505050565b634e487b7160e01b600052603260045260246000fd5b6000808585111561214657600080fd5b8386111561215357600080fd5b5050820193919092039150565b60008451612172818460208901611bd8565b8201838582376000930192835250909392505050565b634e487b7160e01b600052601160045260246000fd5b818103818111156109b1576109b1612188565b6000806000606084860312156121c657600080fd5b833592506121d660208501611e4a565b915060408401356121e68161199e565b809150509250925092565b600063ffffffff80831681810361220a5761220a612188565b6001019392505050565b60006001820161222657612226612188565b5060010190565b6040815263ffffffff8351166040820152602083015160608201526000604084015160a0608084015261226360e0840182611bfc565b90506060850151603f198483030160a08501526122808282611bfc565b60809690960151151560c08501525050506001600160a01b039190911660209091015290565b6000604082840312156122b857600080fd5b604051604081018181106001600160401b03821117156122da576122da611f8d565b604052825181526020928301519281019290925250919050565b60006080828403121561230657600080fd5b61230e611fa3565b90508151815260208201516001600160401b038116811461232e57600080fd5b602082015261234083604084016122a6565b604082015292915050565b60006080828403121561235d57600080fd5b611c3b83836122f4565b601f8211156107cb576000816000526020600020601f850160051c810160208610156123905750805b601f850160051c820191505b818110156123af5782815560010161239c565b505050505050565b81516001600160401b038111156123d0576123d0611f8d565b6123e4816123de8454611f59565b84612367565b602080601f83116001811461241957600084156124015750858301515b600019600386901b1c1916600185901b1785556123af565b600085815260208120601f198616915b8281101561244857888601518255948401946001909101908401612429565b50858210156124665787850151600019600388901b60f8161c191681555b5050505050600190811b01905550565b600060208083018184528085518083526040925060408601915060408160051b87010184880160005b838110156124f357888303603f190185528151805163ffffffff1684528781015161ffff168885015286015160608785018190526124df81860183611bfc565b96890196945050509086019060010161249f565b509098975050505050505050565b60006040828403121561251357600080fd5b611c3b83836122a6565b80820281158282048414176109b1576109b1612188565b60008261255157634e487b7160e01b600052601260045260246000fd5b500490565b63ffffffff81511682526020810151602083015260408101516040830152606081015160608301526000608082015160e0608085015261259960e0850182611bfc565b905060a083015184820360a08601526125b28282611bfc565b91505060c083015184820360c08601526115168282611bfc565b6040815260006125df6040830185612556565b905082151560208301529392505050565b6080815260006126036080830186612556565b905061261c602083018580518252602090810151910152565b6001600160a01b03929092166060919091015292915050565b60008060c0838503121561264857600080fd5b61265284846122f4565b9150611bcf84608085016122a6565b60006020828403121561267357600080fd5b8151611c3b8161199e56fea264697066735822122095b8eada7f7055e7f5d1aeedec31d82ea93979944357011fa52c8c76f62428d764736f6c63430008160033",
  "devdoc": {
    "errors": {
      "OwnableInvalidOwner(address)": [
        {
          "details": "The owner is not a valid owner account. (eg. `address(0)`)"
        }
      ],
      "OwnableUnauthorizedAccount(address)": [
        {
          "details": "The caller account is not authorized to perform an operation."
        }
      ],
      "SafeERC20FailedOperation(address)": [
        {
          "details": "An operation with an ERC-20 token failed."
        }
      ]
    },
    "kind": "dev",
    "methods": {
      "allowInitializePath((uint32,bytes32,uint64))": {
        "details": "This indicates to the endpoint that the OApp has enabled msgs for this particular path to be received.This defaults to assuming if a peer has been set, its initialized. Can be overridden by the OApp if there is other logic to determine this.",
        "params": {
          "origin": "The origin information containing the source endpoint and sender address."
        },
        "returns": {
          "_0": "Whether the path has been initialized."
        }
      },
      "combineOptions(uint32,uint16,bytes)": {
        "details": "If there is an enforced lzReceive option: - {gasLimit: 200k, msg.value: 1 ether} AND a caller supplies a lzReceive option: {gasLimit: 100k, msg.value: 0.5 ether} - The resulting options will be {gasLimit: 300k, msg.value: 1.5 ether} when the message is executed on the remote lzReceive() function.This presence of duplicated options is handled off-chain in the verifier/executor.",
        "params": {
          "_eid": "The endpoint ID.",
          "_extraOptions": "Additional options passed by the caller.",
          "_msgType": "The OAPP message type."
        },
        "returns": {
          "_0": "options The combination of caller specified options AND enforced options."
        }
      },
      "constructor": {
        "params": {
          "_endpoint": "The local chain's LayerZero Endpoint V2 address",
          "_owner": "The address permitted to configure this OApp"
        }
      },
      "getLeaderboard(uint256[])": {
        "params": {
          "_tokenIds": "Array of token IDs to query"
        },
        "returns": {
          "kills": "Array of goblin kill counts for each token"
        }
      },
      "getNativeBalance()": {
        "returns": {
          "balance": "The native token balance of this contract"
        }
      },
      "getPlayerStats(uint256)": {
        "params": {
          "_tokenId": "The player's NFT token ID"
        },
        "returns": {
          "battlesLost": "Total number of battles lost",
          "goblinsKilled": "Total number of goblins killed (wins)",
          "totalBattles": "Total number of battles fought"
        }
      },
      "isComposeMsgSender((uint32,bytes32,uint64),bytes,address)": {
        "details": "_origin The origin information containing the source endpoint and sender address.  - srcEid: The source chain endpoint ID.  - sender: The sender address on the src chain.  - nonce: The nonce of the message._message The lzReceive payload.Applications can optionally choose to implement separate composeMsg senders that are NOT the bridging layer.The default sender IS the OAppReceiver implementer.",
        "params": {
          "_sender": "The sender address."
        },
        "returns": {
          "_0": "isSender Is a valid sender."
        }
      },
      "lzReceive((uint32,bytes32,uint64),bytes32,bytes,address,bytes)": {
        "details": "Entry point for receiving messages or packets from the endpoint.Entry point for receiving msg/packet from the LayerZero endpoint.",
        "params": {
          "_executor": "The address of the executor for the received message.",
          "_extraData": "Additional arbitrary data provided by the corresponding executor.",
          "_guid": "The unique identifier for the received LayerZero message.",
          "_message": "The payload of the received message.",
          "_origin": "The origin information containing the source endpoint and sender address.  - srcEid: The source chain endpoint ID.  - sender: The sender address on the src chain.  - nonce: The nonce of the message."
        }
      },
      "nextNonce(uint32,bytes32)": {
        "details": "_srcEid The source endpoint ID._sender The sender address.The path nonce starts from 1. If 0 is returned it means that there is NO nonce ordered enforcement.Is required by the off-chain executor to determine the OApp expects msg execution is ordered.This is also enforced by the OApp.By default this is NOT enabled. ie. nextNonce is hardcoded to return 0.",
        "returns": {
          "nonce": "The next nonce."
        }
      },
      "oAppVersion()": {
        "returns": {
          "receiverVersion": "The version of the OAppReceiver.sol implementation.",
          "senderVersion": "The version of the OAppSender.sol implementation."
        }
      },
      "owner()": {
        "details": "Returns the address of the current owner."
      },
      "quoteSendString(uint32,string,bytes,bool)": {
        "params": {
          "_dstEid": "Destination chain's endpoint ID.",
          "_options": "Message execution options (e.g., for sending gas to destination).",
          "_payInLzToken": "Whether to return fee in ZRO token.",
          "_string": "The string to send."
        },
        "returns": {
          "fee": "A `MessagingFee` struct containing the calculated gas fee in either the native token or ZRO token."
        }
      },
      "renounceOwnership()": {
        "details": "Leaves the contract without owner. It will not be possible to call `onlyOwner` functions. Can only be called by the current owner. NOTE: Renouncing ownership will leave the contract without an owner, thereby disabling any functionality that is only available to the owner."
      },
      "resetPlayerStats(uint256)": {
        "params": {
          "_tokenId": "The player's NFT token ID"
        }
      },
      "sendString(uint32,string,bytes)": {
        "params": {
          "_dstEid": "Destination Endpoint ID (uint32)",
          "_options": "Execution options for gas on the destination (bytes)",
          "_string": "The string to send"
        }
      },
      "setDelegate(address)": {
        "details": "Only the owner/admin of the OApp can call this function.Provides the ability for a delegate to set configs, on behalf of the OApp, directly on the Endpoint contract.",
        "params": {
          "_delegate": "The address of the delegate to be set."
        }
      },
      "setEnforcedOptions((uint32,uint16,bytes)[])": {
        "details": "Sets the enforced options for specific endpoint and message type combinations.Only the owner/admin of the OApp can call this function.Provides a way for the OApp to enforce things like paying for PreCrime, AND/OR minimum dst lzReceive gas amounts etc.These enforced options can vary as the potential options/execution on the remote may differ as per the msgType. eg. Amount of lzReceive() gas necessary to deliver a lzCompose() message adds overhead you dont want to pay if you are only making a standard LayerZero message ie. lzReceive() WITHOUT sendCompose().",
        "params": {
          "_enforcedOptions": "An array of EnforcedOptionParam structures specifying enforced options."
        }
      },
      "setPeer(uint32,bytes32)": {
        "details": "Only the owner/admin of the OApp can call this function.Indicates that the peer is trusted to send LayerZero messages to this OApp.Set this to bytes32(0) to remove the peer address.Peer is a bytes32 to accommodate non-evm chains.",
        "params": {
          "_eid": "The endpoint ID.",
          "_peer": "The address of the peer to be associated with the corresponding endpoint."
        }
      },
      "setRewardAmounts(uint256,uint256)": {
        "params": {
          "_lossAmount": "Amount of tokens for losing a battle",
          "_winAmount": "Amount of tokens for winning a battle"
        }
      },
      "setRewardToken(address)": {
        "params": {
          "_token": "The OFT token address for rewards"
        }
      },
      "transferOwnership(address)": {
        "details": "Transfers ownership of the contract to a new account (`newOwner`). Can only be called by the current owner."
      },
      "withdrawNative(address,uint256)": {
        "params": {
          "_amount": "Amount of native tokens to withdraw",
          "_to": "Address to send native tokens to"
        }
      }
    },
    "version": 1
  },
  "userdoc": {
    "kind": "user",
    "methods": {
      "SEND()": {
        "notice": "Msg type for sending a string, for use in OAppOptionsType3 as an enforced option"
      },
      "allowInitializePath((uint32,bytes32,uint64))": {
        "notice": "Checks if the path initialization is allowed based on the provided origin."
      },
      "combineOptions(uint32,uint16,bytes)": {
        "notice": "Combines options for a given endpoint and message type."
      },
      "constructor": {
        "notice": "Initialize with Endpoint V2 and owner address"
      },
      "endpoint()": {
        "notice": "Retrieves the LayerZero endpoint associated with the OApp."
      },
      "getLeaderboard(uint256[])": {
        "notice": "Get leaderboard - top goblin slayers"
      },
      "getNativeBalance()": {
        "notice": "Get contract native token balance"
      },
      "getPlayerStats(uint256)": {
        "notice": "Get battle stats for a player"
      },
      "isComposeMsgSender((uint32,bytes32,uint64),bytes,address)": {
        "notice": "Indicates whether an address is an approved composeMsg sender to the Endpoint."
      },
      "nextNonce(uint32,bytes32)": {
        "notice": "Retrieves the next nonce for a given source endpoint and sender address."
      },
      "oAppVersion()": {
        "notice": "Retrieves the OApp version information."
      },
      "peers(uint32)": {
        "notice": "Retrieves the peer (OApp) associated with a corresponding endpoint."
      },
      "playerStats(uint256)": {
        "notice": "Track battle stats per player NFT tokenId"
      },
      "quoteSendString(uint32,string,bytes,bool)": {
        "notice": "Quotes the gas needed to pay for the full omnichain transaction in native gas or ZRO token."
      },
      "resetPlayerStats(uint256)": {
        "notice": "Reset stats for a player (testing/admin purposes)"
      },
      "rewardForWin()": {
        "notice": "Reward amounts"
      },
      "rewardToken()": {
        "notice": "OFT reward token address"
      },
      "sendString(uint32,string,bytes)": {
        "notice": "Send a string to a remote OApp on another chain"
      },
      "setDelegate(address)": {
        "notice": "Sets the delegate address for the OApp."
      },
      "setPeer(uint32,bytes32)": {
        "notice": "Sets the peer address (OApp instance) for a corresponding endpoint."
      },
      "setRewardAmounts(uint256,uint256)": {
        "notice": "Set reward amounts (owner only)"
      },
      "setRewardToken(address)": {
        "notice": "Set reward token address (owner only)"
      },
      "totalGoblinsKilled()": {
        "notice": "Track total goblins killed across all players"
      },
      "withdrawNative(address,uint256)": {
        "notice": "Withdraw native tokens (owner only)"
      }
    },
    "version": 1
  },
  "storageLayout": {
    "storage": [
      {
        "astId": 1681,
        "contract": "contracts/AetheriaHub.sol:AetheriaHub",
        "label": "_owner",
        "offset": 0,
        "slot": "0",
        "type": "t_address"
      },
      {
        "astId": 785,
        "contract": "contracts/AetheriaHub.sol:AetheriaHub",
        "label": "peers",
        "offset": 0,
        "slot": "1",
        "type": "t_mapping(t_uint32,t_bytes32)"
      },
      {
        "astId": 1381,
        "contract": "contracts/AetheriaHub.sol:AetheriaHub",
        "label": "enforcedOptions",
        "offset": 0,
        "slot": "2",
        "type": "t_mapping(t_uint32,t_mapping(t_uint16,t_bytes_storage))"
      },
      {
        "astId": 2539,
        "contract": "contracts/AetheriaHub.sol:AetheriaHub",
        "label": "playerStats",
        "offset": 0,
        "slot": "3",
        "type": "t_mapping(t_uint256,t_struct(PlayerStats)2533_storage)"
      },
      {
        "astId": 2542,
        "contract": "contracts/AetheriaHub.sol:AetheriaHub",
        "label": "totalGoblinsKilled",
        "offset": 0,
        "slot": "4",
        "type": "t_uint256"
      },
      {
        "astId": 2545,
        "contract": "contracts/AetheriaHub.sol:AetheriaHub",
        "label": "rewardToken",
        "offset": 0,
        "slot": "5",
        "type": "t_address"
      },
      {
        "astId": 2549,
        "contract": "contracts/AetheriaHub.sol:AetheriaHub",
        "label": "rewardForWin",
        "offset": 0,
        "slot": "6",
        "type": "t_uint256"
      },
      {
        "astId": 2552,
        "contract": "contracts/AetheriaHub.sol:AetheriaHub",
        "label": "rewardForLoss",
        "offset": 0,
        "slot": "7",
        "type": "t_uint256"
      }
    ],
    "types": {
      "t_address": {
        "encoding": "inplace",
        "label": "address",
        "numberOfBytes": "20"
      },
      "t_bytes32": {
        "encoding": "inplace",
        "label": "bytes32",
        "numberOfBytes": "32"
      },
      "t_bytes_storage": {
        "encoding": "bytes",
        "label": "bytes",
        "numberOfBytes": "32"
      },
      "t_mapping(t_uint16,t_bytes_storage)": {
        "encoding": "mapping",
        "key": "t_uint16",
        "label": "mapping(uint16 => bytes)",
        "numberOfBytes": "32",
        "value": "t_bytes_storage"
      },
      "t_mapping(t_uint256,t_struct(PlayerStats)2533_storage)": {
        "encoding": "mapping",
        "key": "t_uint256",
        "label": "mapping(uint256 => struct AetheriaHub.PlayerStats)",
        "numberOfBytes": "32",
        "value": "t_struct(PlayerStats)2533_storage"
      },
      "t_mapping(t_uint32,t_bytes32)": {
        "encoding": "mapping",
        "key": "t_uint32",
        "label": "mapping(uint32 => bytes32)",
        "numberOfBytes": "32",
        "value": "t_bytes32"
      },
      "t_mapping(t_uint32,t_mapping(t_uint16,t_bytes_storage))": {
        "encoding": "mapping",
        "key": "t_uint32",
        "label": "mapping(uint32 => mapping(uint16 => bytes))",
        "numberOfBytes": "32",
        "value": "t_mapping(t_uint16,t_bytes_storage)"
      },
      "t_struct(PlayerStats)2533_storage": {
        "encoding": "inplace",
        "label": "struct AetheriaHub.PlayerStats",
        "members": [
          {
            "astId": 2528,
            "contract": "contracts/AetheriaHub.sol:AetheriaHub",
            "label": "totalBattles",
            "offset": 0,
            "slot": "0",
            "type": "t_uint32"
          },
          {
            "astId": 2530,
            "contract": "contracts/AetheriaHub.sol:AetheriaHub",
            "label": "goblinsKilled",
            "offset": 4,
            "slot": "0",
            "type": "t_uint32"
          },
          {
            "astId": 2532,
            "contract": "contracts/AetheriaHub.sol:AetheriaHub",
            "label": "battlesLost",
            "offset": 8,
            "slot": "0",
            "type": "t_uint32"
          }
        ],
        "numberOfBytes": "32"
      },
      "t_uint16": {
        "encoding": "inplace",
        "label": "uint16",
        "numberOfBytes": "2"
      },
      "t_uint256": {
        "encoding": "inplace",
        "label": "uint256",
        "numberOfBytes": "32"
      },
      "t_uint32": {
        "encoding": "inplace",
        "label": "uint32",
        "numberOfBytes": "4"
      }
    }
  }
}